:100000000C942D020C944A020C944A020C944A025D
:100010000C944A020C944A020C944A020C944A0230
:100020000C944A020C944A020C94261C0C94FE1C5C
:100030000C94DB1B0C944A020C944A020C944A0266
:100040000C944A020C944A020C944A020C944A0200
:100050000C944A020C94021C0C944A020C944A021E
:100060000C944A020C944A020C944A020C944A02E0
:100070000C944A020C944A020C944A020C944A02D0
:100080000C944A020C944A020C944A020C944A02C0
:100090000C944A020C944A020C944A020C944A02B0
:1000A0000C944A020C944A020C944A02050109027B
:1000B000A10185020901A1000509190129081500FE
:1000C0002501950875018102050109300931158165
:1000D000257F95027508810609381581257F9501D0
:1000E00075088106050C0A38021581257F95017572
:1000F000088106C0C005010980A101850319012AF4
:10010000B700150126B700950175108100C0050CD8
:100110000901A101850419012AA002150126A002E6
:10012000950175108100C005010906A1018506052C
:100130000719E029E71500250195087501810205D9
:1001400007190029EF1500250195F07501810205B9
:10015000081901290595057501910295017503910D
:1001600001C00660FF0961A1010962150026FF00B8
:100170009520750881020963150026FF00952075FA
:10018000089102C005010906A101050719E029E748
:1001900015002501950875018102950175088101F9
:1001A0000507190029FF150026FF0095067508812F
:1001B000000508190129051500250195057501910E
:1001C00002950175039101C009025B00030100A0C3
:1001D000FA090400000103010100092111010001D5
:1001E00022440007058103080001090401000203FD
:1001F00000000009211101000122220007058203ED
:100200002000010705030320000109040200010387
:1002100000000009211101000122B6000705840336
:1002200020000112010002000000084B53090000E9
:1002300001010200011403530063006F0074007495
:10024000006F0046006C0079000000180353006343
:10025000006F00740074006F004B00650065006261
:1002600000730000000403090414001A00080015BC
:100270000017001C0018000C0012001300040016E8
:1002800000070009000A000B000D000E000F002AF5
:10029000001D221B00060019000500110010003689
:1002A000003700383200000000E300E2002C282B69
:1002B0004128422900000000002D022D002E022EB0
:1002C0000033023500BC00AE00BB004C002F0226FC
:1002D0000227023002310229005000520051004F23
:1002E000002F2234003402300033003502AA00A867
:1002F00000A90031320000000001000100010001EE
:100300000001000100000000001E021F0220022167
:1003100002220223022402250239002A001E001FA5
:1003200000200021002200230024002500260027B1
:1003300000E1000000000000002352000000003631
:100340000037003832000000000100010001000108
:10035000000100010000000000000000000000009B
:10036000000000000000000000000000003A003B18
:10037000003C003D003E003F004000410042004381
:1003800000440000000000007C01000000000000AC
:100390000000004500000000000100010001000114
:1003A000000100010000000000000000000000004B
:1003B000000000000000000000000000000000003D
:1003C000000000000000000000000000007E0F00A0
:1003D000D4FFFFFFC700000078000000000000000D
:1003E000002A2B2800000000000000000000000090
:1003F0000000000029000000002C1E3420212224CF
:10040000342627252E362D3738271E1F202122235C
:100410002425263333362E37381F040506070809EE
:100420000A0B0C0D0E0F10111213141516171819B4
:100430001A1B1C1D2F3130232D3504050607080912
:100440000A0B0C0D0E0F1011121314151617181994
:100450001A1B1C1D2F3130354C0011241FBECFEF4D
:10046000DAE0DEBFCDBF11E0A0E0B1E0E2EFFCE3F7
:1004700002C005900D92AE35B107D9F722E0AEE586
:10048000B1E001C01D92AB35B207E1F70E94BE1783
:100490000C94121E0C940000809314020895809313
:1004A0001502089521E030E001C0220F8A95EAF795
:1004B00080911502822B0E944F02089521E030E0C6
:1004C000A90102C0440F551F8A95E2F7CA01809521
:1004D0009091150289230E944F020895292F94308C
:1004E00098F58A3088F590E03AE0239F800D911DC1
:1004F0001124282F277041E001C0440F2A95EAF704
:1005000023E0969587952A95E1F7FC01EE0FFF1FF2
:10051000E80FF91FE950FE4F20E030E070E0519104
:10052000DF011197CB01022E02C0969587950A94A0
:10053000E2F7817081958527842385278C932F5F2F
:100540003F4F2330310559F70895292F943078F51E
:100550008A3068F590E03AE0239F800D911D1124C8
:10056000682F677023E0969587952A95E1F7FC013F
:10057000EE0FFF1FE80FF91FE950FE4F40E050E07B
:1005800080E0219130E0062E02C0369527950A942E
:10059000E2F721703327042E01C0220F0A94EAF7F4
:1005A000822B4F5F5F4F4330510559F7089580E02C
:1005B00008959091150221E030E0F90101C0EE0F9D
:1005C0008A95EAF7D90102C0AA0FBB1F6A95E2F724
:1005D000EA2B01C0220F4A95EAF7892F8E23E813F0
:1005E00005C0892F822B0E944F0208952095822FEB
:1005F0008923F9CF80911B0290911A02981301C0B0
:1006000008958F5F8770FACF9091160280958923A5
:1006100080931602282F277021110DC0891759F0D9
:100620009091180292FF07C08695869586950E9444
:100630005E021092160208958091110290911902A3
:10064000892BA0911202A115F9F090910A01911540
:1006500039F0909117027EE12AE631E097FD03C060
:1006600076E022E631E0A90190E0FA0160814F5F77
:100670005F4F61119F5F672F641B620F6111F5CFA0
:100680009111109212028A2B0895982F90958091C3
:1006900011028923809311020895803E9105D9F1BA
:1006A000C8F48133910509F482C048F48932910578
:1006B00009F472C08A32910509F480C00895893323
:1006C0009105E9F082389105D1F08533910509F45F
:1006D0005EC00895843E9105D9F148F4823E9105AB
:1006E00039F1833E910549F181EE90E00895863E0F
:1006F0009105C9F1873E910509F43EC00895209106
:1007000017022370211164C02091180223FF14C026
:1007100089E290E008952091170220FD45C03091B4
:10072000180230FF09C024FD24C083EE90E0089534
:100730002091170222FDF7CF08952091170222FD84
:1007400044C03091180230FD43C024FFF5CF11C0E2
:100750002091180221FFF0CF8091170284FD09C07B
:1007600087EE90E008952091170223FFE5CF24FF44
:10077000F7CF80E090E008952091170223FD2BC071
:100780003091180231FFE1CF84EE90E0089520917E
:10079000170225FFD1CFBCCF2091170225FD1EC027
:1007A0002091180223FFC8CF89E390E0089520919B
:1007B000170226FFC1CF8AE290E008952091170228
:1007C00026FFBACF81E390E0089582EE90E008958D
:1007D00080EE90E0089586EE90E0089585E390E045
:1007E00008959091170292FF10C041E0282F2471C4
:1007F000243009F040E031E0282F2871283009F03A
:1008000030E0431711F02CE0822793FF10C041E045
:10081000282F2471243109F040E031E0282F28717D
:10082000283109F030E0431711F02CE08227309195
:10083000180230FF10C051E0282F2171213009F03B
:1008400050E041E0282F2871283009F040E054178B
:1008500011F029E0822731FF10C041E0282F2171DB
:10086000213109F040E031E0282F2871283109F0CA
:1008700030E0431711F029E0822794FD877E089528
:100880001F93CF93DF930E944D03EC01811522E566
:10089000920708F05DC0811540E5940708F0DBC0C1
:1008A000803E910528F58D3C910508F0ACC0883A52
:1008B000910578F4853A910508F0A2C08130910540
:1008C00009F441C00497813A9105E8F1C0E0D0E015
:1008D0003AC0885A91094B97C8F7C85AD0E0CC0F54
:1008E000DD1FC85DDE4F0990D881C02DD4642BC0B8
:1008F000811550E49507F8F4C11580E2D80708F097
:10090000C3C0C83ED105F8F0CE019A9581159F412C
:10091000E8F68D2F0E94F103182FCE0199270E942F
:100920004D03212F30E0322F2227E901CC27DF7140
:10093000C82BD92B08C099270E944D03CC27DF7004
:10094000C82BD92BD06ACE01DF91CF911F9108958A
:10095000803842E59407C8F5803652E5950708F0DF
:100960005BC0C03482E5D807D0F4C03292E5D90725
:1009700008F04BC08C2F8695869520E2829FC0019F
:100980001124C37021E030E0A90102C0440F551FBB
:10099000CA95E2F7EA01C82BD92BDD68D4CF8C2F9A
:1009A00086958695877050E2859FC0011124C3709B
:1009B00021E030E0A90102C0440F551FCA95E2F7BB
:1009C000EA01C82BD92BDC68BECF803C52E59507E5
:1009D00058F48F71C03AD245A0F590E0982F88273F
:1009E000EC01C46FD06AAFCF805C9245809708F06D
:1009F0006DCFDC2FCC27CC27DF71C06FD06AA3CF9F
:100A0000A497D064A0CFD0659ECFCF71D0E0DC2F6B
:100A1000CC27C16FD06A97CF86958695877020E2E4
:100A2000829FC0011124C37021E030E0A90102C0FF
:100A3000440F551FCA95E2F7EA01C82BD92BDA6893
:100A400082CF0E94F103C82FD0E0DC2FCC27CC2727
:100A5000DF71D06278CF8F710E94F10365E0D69587
:100A6000C7956A95E1F7CF70D0E0DC2FCC27282F0F
:100A700030E084FF05C054E0220F331F5A95E1F7A0
:100A8000C22BD32BD0695FCF8D2F8F710E94F103C2
:100A9000182FCE0199270E944D03212F30E0322FCD
:100AA000222722273F71282B392BE901D2CF80E062
:100AB0000895F894E82FE295EF70F0E041A18F706F
:100AC00021E030E0B90102C0660F771F8A95E2F796
:100AD000CB01962F9095942391A392A1892B82A369
:100AE00078940895282F35EB2303C001112497FF34
:100AF00004C080589109892F089580589F4FFBCFDB
:100B00008091080280FD14C081FD14C082FD16C0D2
:100B100080910702811581F08E3180F420E5829F5B
:100B2000C00111246EE170E00E94471D862F0895D8
:100B300084E1089588E2089588E0089580E50895A5
:100B40008091080280FD17C081FD17C082FD19C089
:100B500080910602811599F0883298F428E0829FEE
:100B6000C001112468E270E00E94471D6115710503
:100B700051F0862F089562E0FCCF64E0FACF61E087
:100B8000F8CF68E0F6CF81E00895E091ED01F091B3
:100B9000EE01309729F00190F081E02D099508953C
:100BA00080E00895A3E0B0E0E8EDF5E00C94781D56
:100BB0009C018091A8019091A90182179307A1F04F
:100BC0003093A9012093A801E091ED01F091EE018D
:100BD000309751F083E089833B832A830084F18539
:100BE000E02DCE01019609952396E2E00C94941D28
:100BF000A3E0B0E0EEEFF5E00C94781D9C0180914D
:100C0000A6019091A70182179307A1F03093A70145
:100C10002093A601E091ED01F091EE01309751F0A3
:100C200084E089833B832A830084F185E02DCE0113
:100C3000019609952396E2E00C94941D90910A0187
:100C40009115C1F09091170297FF14C0E82FE69517
:100C5000E695E695803FF8F4F0E0E859FE4F87709E
:100C600021E030E001C0220F8A95EAF78281822BD1
:100C700082830895A2E6B1E0EFEF90E02D91821714
:100C800051F0EF3F19F4211101C0E92F9F5F963019
:100C9000A9F7EF3F09F408950E2E000CFF0BE05A60
:100CA000FE4FE6CF90910A019115E1F09091170265
:100CB00097FF18C0E82FE695E695E695803FF0F49B
:100CC000F0E0E859FE4F877021E030E0A90102C052
:100CD000440F551F8A95E2F7CA01809592818923B6
:100CE00082830895E2E6F1E09191891303C0DF0168
:100CF00011971C9251E0E836F507B1F708952FB728
:100D0000F8948091A2019091A301A091A401B091C7
:100D1000A5012FBF08950E947F0620910B023091FC
:100D20000C02232B211521F08093BF019093C00169
:100D300020910D0230910E02232B211521F080937A
:100D4000BD019093BE01E091ED01F091EE0130976D
:100D500049F082E0809309020680F781E02D89E066
:100D600092E00995089520910B0290910E02309126
:100D70000D02611509F458C040910C02242B292B57
:100D8000232B211531F098E09093070291E0909386
:100D90000602E3E3E80FE33150F4F0E0EC5EF14EDD
:100DA0000C945B1D0E948005819580930C020E942B
:100DB0008B0608950E948005F8CF0E9480058195DA
:100DC00080930B02F4CF0E948005FACF0E94A00509
:100DD00080930D02ECCF0E94A0058195F9CF0E946F
:100DE000A005819580930E02E2CF0E94A005FACF64
:100DF000815D990B21E030E001C0220F8A95EAF76E
:100E000080910A02822B80930A02D1CF809108023E
:100E1000816080930802CBCF809108028260F9CF75
:100E2000809108028460F5CF8D3C59F480910C02CA
:100E300087FF0DC010920C02211559F41092070281
:100E400008C08E3C81F480910C0218169CF3211589
:100E500081F080910D0290910E02892B8111A7CF14
:100E600010920602A4CF8F3C41F427FFF0CF1092DE
:100E70000B0280910C028115E0CF803D19F412160F
:100E8000B4F3E5CF893D29F413160CF710920D0247
:100E9000DECF8A3D19F437FFDACFF8CF8B3D29F446
:100EA00097FFD5CF10920E02D2CF8C3D19F41916B0
:100EB000CCF3CDCF9FE2980F983090F4815D990BE1
:100EC00041E050E0BA0102C0660F771F8A95E2F751
:100ED000CB01809590910A02892380930A02B7CFB3
:100EE0008D3D31F4809108028E7F80930802AFCF50
:100EF0008E3D21F4809108028D7FF7CF8F3D09F060
:100F0000A6CF809108028B7FF0CF2FB7F894609125
:100F1000A2017091A3018091A4019091A5012FBF1E
:100F200008959C014FB7F8948091A2019091A3017C
:100F3000A091A401B091A5014FBF821B930B08950E
:100F400087E797E7909301088093000888E19AE08B
:100F50000FB6F894A895809360000FBE9093600040
:100F6000FFCF8091A1010895FC019B018091970121
:100F7000909198018617970740F0672B29F480918C
:100F8000E8008E778093E800C90140E0009741F4C3
:100F9000411106C08091E80082FF2FC080E00895D3
:100FA0002091CA012115A9F12530A9F12091E8006D
:100FB00023FD2DC02091E80022FDECCF2091E80018
:100FC00020FFE4CF3091F3002091F200009719F058
:100FD0002830310558F041E02830310509F040E073
:100FE0002091E8002E772093E800D0CF41914093E4
:100FF000F10001972F5F3F4FE9CF8091CA01811522
:1010000041F0853041F08091E80083FFC3CF81E05B
:10101000089582E0089583E008958091910187FF0B
:1010200013C08091E80082FF06C08091E8008B77B2
:101030008093E80008958091CA018111F2CF08954C
:101040008091CA018115D9F38091E80080FFF8CF23
:101050008091E8008E77ECCF2091E4003091E5009C
:1010600095E6A9018091EC008170811531F08091A5
:10107000E80080FF06C080E008952091E80022FD8E
:101080001AC08091CA01811589F0853089F080915C
:10109000EB0085FD0FC02091E4003091E500421780
:1010A000530701F39A95E9F684E0089582E00895E4
:1010B00083E0089581E00895E8EDF0E080818E7F7F
:1010C00080831092E2001092DA001092E100A0EE0C
:1010D000B0E08C9181608C9380818F77808319BC84
:1010E000A7EDB0E08C918E7F8C9380818F7E808382
:1010F000109290010895982F9093E900242F762F55
:1011000050E0981731F07091EC002091ED00509173
:10111000F00021FD06C09F5F973071F78093E900D2
:1011200008953091EB003E7F3093EB003091ED005D
:101130003D7F3093ED003091EB0031603093EB0058
:101140007093EC002093ED005093F0002091EE009E
:1011500027FDE1CF0895A0E0B0E0E1EBF8E00C94CA
:10116000721DC8EDD0E088818F7E8883E7EDF0E0C6
:1011700080818160808384E082BF81E080939001E0
:1011800088818E7F888302EE10E0F8011082109231
:10119000DA0081EEC82ED12CF601108288818F777B
:1011A000888388818068888388818F7D888319BC43
:1011B0001092CA0110928F011092B30110928E0109
:1011C00090EEE92EF12CF70180818B7F808388815E
:1011D0008160888342E060E080E00E947B08F60145
:1011E00080818E7F8083F80180818160808380810F
:1011F00088608083F70180818E7F80838881806111
:101200008883CDB7DEB7E8E00C948E1D0F931F9353
:10121000CF93DF938B01EA019091CA01943059F585
:101220008093E9008FEF9091E80095FD06C095ED61
:101230009A95F1F700008A95B1F78091E80085FF53
:101240001AC00E942C08811111C08091E80085FD10
:1012500006C08091E8008E778093E800F2CFF80115
:1012600081918F018093F100219779F78091E800B7
:101270008E778093E800DF91CF911F910F910895B1
:10128000CF93DF93D82FC92F48E050E0682F792FF4
:1012900081E00E94060988E0ED2FFC2FA9E9B1E06A
:1012A00001900D928A95E1F7DF91CF910895BC01ED
:1012B00040E250E084E00E9406090895BC0146E047
:1012C00050E084E00E9406090895BC0143E050E02C
:1012D00084E00E94060908959091180292FB22274B
:1012E00020F9281779F080FB92F990931802609109
:1012F00017027091180284E090E00E94EF1D82E0D6
:101300000E94040308951F93CF93DF93962F122F0B
:10131000632F282F292B2430C8F44A30B8F4C42F67
:10132000D0E0CC0FDD1F24E1929FC00DD11D112410
:1013300090E5899FC00DD11D1124CE0189960E9490
:10134000D11D612FCE018A960E94D11DDF91CF91D0
:101350001F910895AF92BF92CF92DF92FF920F93A9
:101360001F93CF93DF93A12CB12C00E0650110E017
:1013700013C0FE01259134914F2D612F802F0E94C3
:1013800083092296F3948AE0F812F3CF8AE0C80E1C
:10139000D11C1F5F143039F0E601CC0FDD1FC75997
:1013A000DD4FF12CE6CF0F5F88E2A80EB11C0430B0
:1013B000E9F6DF91CF911F910F91FF90DF90CF90D1
:1013C000BF90AF900895CF93DF93C9E6D1E060E07E
:1013D000CE010E94D11D2196C11584E0D807B9F72E
:1013E000DF91CF910895CF93C82F64E2811101C09E
:1013F0006FEF85E290E00E94D11D63E0C11101C052
:101400006FEF86E290E00E94D11D61E0C11101C042
:101410006FEF87E290E00E94D11DCF91089580E0A8
:101420000E94F30960E088E290E00E94D11D0E94D2
:10143000AA090E94E30981E00E94F30908950F932D
:101440001F93CF93DF93982F962B943020F54A303B
:1014500010F5C42FD0E0CC0FDD1F24E1629FC00D3A
:10146000D11D112430E5839FC00DD11D1124CE0163
:1014700089960E94B31D082F10E0102F0027CE017F
:101480008A960E94B31D9801282BC901DF91CF9144
:101490001F910F91089580E090E0F8CF462F672FBD
:1014A000982F972B943028F44A3018F40E941F0A82
:1014B000089580E090E00895A0E0B0E0E2E6FAE070
:1014C0000C94731D7C010091150280911402082B6D
:1014D000C3E0D0E010E0C8010C2E02C095958795BE
:1014E0000A94E2F780FD09C02197A8F7D12C8D2D31
:1014F000CDB7DEB7E7E00C948F1DDC2EB7018C2F43
:101500000E944E0A0E944004019771F3F0CF0F939E
:101510001F93CF93FC01858100811181811591F08A
:10152000611581F0C8010E945C0AC82F682FC801AC
:101530000E946E02B8018C2F0E944E0ACF911F911B
:101540000F910895C8010E94A502C82FF3CFCF9331
:10155000DF93D82FC92F0E945C0A6D2F7C2F0E9429
:101560004E0A0E944004DF91CF910895FC018481CE
:101570008115A1F0808191810E94A70A282F929560
:101580009F70963099F060F4925F9F70923030F4C3
:10159000203F89F038F481E0283E38F080E008955B
:1015A0009A5FF3CF81E0243FC9F7089581E0283E98
:1015B00020F0213FF9CF81E00895089585E290E081
:1015C0000E94B31D843289F486E290E00E94B31D2C
:1015D000833059F487E290E00E94B31D91E081309E
:1015E00009F090E0892F8170089580E0FCCF809110
:1015F0000A01811559F18091170287FF27C00E94C7
:101600001C038093690140E250E06DEC71E088E6D4
:1016100091E00E94051E892BC1F080E2E8E6F1E02E
:10162000ADECB1E001900D928A95E1F7E091ED010A
:10163000F091EE01309749F086E0809368010480D4
:10164000F581E02D88E691E0099508950E941C033C
:101650008093600148E050E06FEE71E080E691E039
:101660000E94051E892B89F388E0E0E6F1E0AFEEE9
:10167000B1E001900D928A95E1F7E091ED01F091D2
:10168000EE01309711F30280F381E02D80E691E0C6
:10169000DBCFCF93C82F8115B9F18CEF8C0F813A36
:1016A000A8F580910A01811501F18091170287FF49
:1016B0001CC0EC2FE695E695E695F0E0E859FE4F64
:1016C000828190E04C2F477021E030E002C0220F71
:1016D000331F4A95E2F782239323892B81F08C2FC5
:1016E0000E9452060E94F70A0AC0E2E6F1E088E68C
:1016F00091E02191C21799F38E179F07D1F78C2F94
:101700000E941E060E94F70ACF91089580E28C0F76
:10171000883068F4C77081E090E001C0880FCA95F6
:10172000EAF7C0911102C82BC0931102EBCF8BE5F1
:101730008C0F833038F42C2F2452330BC9010E94B4
:10174000D205E2CFE8E5EC0FEB3150F4F0E0EE0F1C
:10175000FF1FE85DFE4F808191810E94F805D4CF84
:1017600083E38C0F833180F661E08C2F0E94B306F7
:10177000CBCF811581F19CEF980F913A28F40E940C
:1017800052060E94F70A089590E2980F983050F49C
:10179000877091E001C0990F8A95EAF7892F0E941E
:1017A0004503EFCF9BE5980F933028F480E090E05D
:1017B0000E94D205089598E5980F9B3128F480E0A7
:1017C00090E00E94F805089593E3980F933118F480
:1017D00060E00E94B30608950F931F93CF93C82F24
:1017E00000E510E0893311F000E010E08C2F0E943A
:1017F000490B0115110539F48C2F0E94B90BCF91BB
:101800001F910F9108958FE99FE00197F1F700C0B4
:10181000000001501109EDCF811539F090911102AE
:10182000892B809311020E94F70A0895811521F0F7
:101830000E9445030E94F70A0895FF920F931F9399
:10184000CF93DF93C62FD42F122F8115A9F0609369
:101850000F020E947F0690938C0180938B01C770CA
:1018600081E001C0880FCA95EAF70E940C0CCDB741
:10187000DEB7E5E00C94911D80910F02681330C033
:1018800080918B0190918C010E949107873891057E
:1018900038F500E20D0FCD17A9F0C770FF24F394BF
:1018A0008F2D01C0880FCA95EAF70E94160C0830E8
:1018B00048F48D2F877001C0FF0C8A95EAF78F2DB1
:1018C0000E940C0C812F0E94EC0B083080F6D77020
:1018D00081E001C0880FDA95EAF70E94160CC7CFA5
:1018E000C77081E001C0880FCA95EAF7F6CF109261
:1018F000110280910A01811539F18091170287FF49
:1019000023C0EAE6F1E08EE1DF011D928A95E9F756
:1019100080E090E00E94D20580E090E00E94F8050F
:10192000109219020E94F70A86E0E9E0F2E0DF0176
:101930001D928A95E9F71092070210920602109202
:1019400008020E948B060895E2E6F1E086E0DCCF13
:101950000E94770C2FEF84E39CE021508040904060
:10196000E1F700C0000088E19AE00FB6F894A8956E
:10197000809360000FBE90936000FFCFA8E0B0E0BE
:10198000E4ECFCE00C94681D6C01FC018481811581
:1019900009F49DC061E0C6010E94870A8C01F6012E
:1019A0008581811509F428C1980137572038310500
:1019B00008F0CFC4003108F07AC08FEF93E00E94A6
:1019C000B31D811174C049E6A42EBB24B394011148
:1019D00043C0CE0101964C0188E0F40111928A9532
:1019E000E9F73AE0232E85010F5F1F4FC5010E94E2
:1019F000B31D89831A82811509F459C0813009F019
:101A00006AC07501F2E0EF0EF11CC8010E94B31D1F
:101A10008A83811509F44BC09FEF980F933050F5DE
:101A200023E0A20EB11CC7010E94B31D8B83811558
:101A3000F1F11C828401F80120812115A1F22130ED
:101A400009F084C091818281913009F046C00E5F17
:101A50001F4F0E94EC0B47C0A114F4E0BF0639F100
:101A6000C5010E94B31D811101C001502FEFA21AC0
:101A7000B20AADCF8430A1F402E010E0C7013FEF1D
:101A8000E31AF30A0E94B31DF401E00FF11F8083F3
:101A9000811569F08C3731F4FE01E00FF11F1282DD
:101AA0005701C8CF0F5F1F4F0730110539F78091DD
:101AB00016028770811559F0F6018581811539F07C
:101AC0008091180282FF03C082E00E9404032896DE
:101AD000E2E10C94841D5801ADCF923039F40E5FD1
:101AE0001F4F0E94490B0F5F1F4FA5CF933029F462
:101AF0000E5F1F4F0E94B90BF6CF943019F00F5FA5
:101B00001F4FF1CF0E5F1F4F20E030E0A8014F5F65
:101B10005F4F8053990B8A30910560F02115310594
:101B200011F38FE99FE00197F1F700C00000215009
:101B30003109F4CF229EB001239E700D11249C0127
:101B4000260F371FF80181818A01E0CFE22FF0E0F4
:101B5000E752FC4F3490E22FE695E695E6958E2FFE
:101B600090E0FC01E753FC4FE4912770F0E0022E77
:101B700002C0F595E7950A94E2F7E170FF272F017F
:101B8000FC01E754FC4FE491F0E0022E02C0F59511
:101B9000E7950A94E2F7E170FF273F01FC01E75562
:101BA000FC4FE490F12C02C0F594E7942A95E2F7FB
:101BB00081E0E822FF244114510419F081EE0E94D3
:101BC000490B6114710419F086EE0E94490B832DB4
:101BD0000E94EC0B6114710419F086EE0E94B90B9F
:101BE0004114510419F081EE0E94B90BE114F10483
:101BF00009F479CF8CE22DCFF801E851FC47E730AA
:101C0000F10508F0DDC0E95DF14E0C945B1D26E2A4
:101C100041EE61EE0E941D0C4ACF27E245EE65EED3
:101C2000F9CF26E241EE60EEF5CF27E245EE64EE15
:101C3000F1CF26E241EE62EEEDCF27E245EE66EE11
:101C4000E9CF28E241E0EBCF8091170281608093D9
:101C50001702609117027091180284E090E00E94D0
:101C6000EF1D0E94770C23CF80911802886080932B
:101C70001802EFCF809117028260E9CF809117029E
:101C80008460E5CF809117028860E1CF80911802CF
:101C90008160EDCF809118028260E9CF80911702B8
:101CA0008061D5CF809117028062D1CF80911702D9
:101CB0008064CDCF0E94770C809117028068C7CFD7
:101CC000809117028C60C3CF809118028360CFCFC0
:101CD000809117028E7FBBCF80911802877FC7CF7C
:101CE000809117028D7FB3CF809117028B7FAFCF8A
:101CF00080911702877FABCF809118028E7FB7CF7C
:101D0000809118028D7FB3CF809117028F7E9FCF75
:101D1000809117028F7D9BCF809117028F7B97CF89
:101D20000E94770C809117028F7791CF80911702D4
:101D3000837F8DCF809118028C7F99CF809117027D
:101D400082FB992790F921E0922790FB82F990FB82
:101D500083F97DCF80911802982F909590FB80F9A0
:101D600090FB81F984CF90911702892F8F7B96FF8A
:101D700080646DCF0E94770C90911702892F97FB9A
:101D800087F9805864CF61E08EE090E00E94D11D19
:101D900060CF60E0F9CF90911702892F8F7E94FF7A
:101DA000806155CF90911702892F8E7F90FF8160BF
:101DB0004ECF90911802892F877F93FF886057CF6D
:101DC00006319CE7190701F590911102811591F0F8
:101DD000892F8A7A91E0811101C090E090931002DE
:101DE000811531F085E30E941E060E94F70A5FCE3E
:101DF00089E2F9CF80911002811521F085E30E94DC
:101E00005206F3CF89E2FBCF0737ECE71E0709F450
:101E100069C00837FCE71F0709F473C08115A9F0F2
:101E20000A352CE7120709F499C008F070C0013098
:101E30008CE7180709F490C003309CE7190709F4F0
:101E400085C001151C4709F474C0F6018581E08046
:101E5000F180811509F486C0C7010E945C0A182F21
:101E6000682FC7010E946E02B701812F0E944E0A9F
:101E70000E9440048C01F601B580A680A2942FE058
:101E8000A222809116028770811501F1FB2CB114FA
:101E9000F1F0812F807F803461F080E2800F883004
:101EA000A8F0812F807E803221F4023078F0A114D6
:101EB00069F08091180282FF09C082E00E94040349
:101EC000809116028770FF24F3948111F12CE12F89
:101ED000E295EF70103C08F0B0C0F0E0E25DF14E2A
:101EE0000C945B1D811549F081E00E94520243E091
:101EF00062E081E00E94D902DACD81E00E945E02B8
:101F0000F6CF811511F082E0F0CF82E0F7CF0B35EC
:101F1000FCE71F0729F10C351C4709F096CF80918B
:101F2000180282FB882780F991E089270E946C09BA
:101F30008CCF0E94770C3FEF84E39CE031508040CF
:101F40009040E1F700C000000E94A0076FEF7FEF14
:101F500080E090E00E94EF1D0E94A80C81E0E6CF97
:101F600080E0E4CFC7010E94A502182F7DCFF12F9A
:101F7000FF70EF2E103118F0E29490EFE922B114C7
:101F8000B9F0E11469F080E2800F883010F001119F
:101F900009C0809111028E29809311020E94F70AD4
:101FA000802F43C0809119028E2980931902F6CFA9
:101FB000802F0E94B90BE11409F43FC080E2800F2A
:101FC000883010F0011104C08E2D0E94450306C018
:101FD000E094809119028E21809319020E94F70AE1
:101FE0002CC0212F2F70E22E107F103219F0E294B6
:101FF00080EFE822011549F0013009F46BC0B114FB
:1020000009F477C0A114C9F1CBCF8091180282FDE9
:1020100030C0B11469F0E11439F0809111028E29B9
:10202000809311020E94F70A80E00E94490B05C0CC
:1020300080E00E94B90BE110C7CFF114A9F08091A4
:10204000160280FD11C0F60115828695869586954B
:102050000E945202C6010E94BE0C80911602869513
:10206000869586950E945E0260E0C6010E94870AFE
:102070002ECDB11499F0A11004C08E2D0E940C0C2D
:10208000DCCF31E0A312D9CF909112028E2D89239B
:10209000E81699F29E2990931202CFCFA110CDCFCE
:1020A0008E2D0E94160C909112028E2D892381157F
:1020B00029F08E2D8095892380931202809113023E
:1020C0009E2D9823911509F4B8CFE094E822E09270
:1020D0001302B3CFB11429F086E0A81608F0ADCFF3
:1020E000CCCF95E0A91608F0A8CF8E2D0E94160C33
:1020F000A4CFA114D1F3093349F4EFEFF7EE23E0B5
:10210000E150F0402040E1F700C00000802F0E9425
:10211000B90B93CF812F869586958370811561F0D9
:10212000813009F08ACFC8019370B11002C080E0FD
:1021300090E00E94F80581CFC8019370B11002C0F1
:1021400080E090E00E94D20578CF6B2D802F0E9416
:10215000B30673CF812F8370811136C0B11029C0AF
:10216000402F429546954770440F440F202F2F7003
:10217000042E01C0220F0A94EAF70071011541F004
:102180008FE090E001C0880F4A95EAF7082F00958C
:10219000169516951370123091F0802F822B133004
:1021A00031F080911402113039F0202B82230E94EB
:1021B0004C020E94C50541CF822B802BF8CF202BEB
:1021C000809114028227F3CFB11461F110FFF1CF97
:1021D000402F429546954770440F440F202F2F7093
:1021E000042E01C0220F0A94EAF70071011541F094
:1021F0008FE090E001C0880F4A95EAF7082F00951C
:10220000169516951370123099F0802F822B13308B
:1022100031F080911502113041F0202B82230E9471
:102220004F02C7CF823028F2D3CF822B802BF7CF3B
:10223000202B809115028227F2CF1F70B11439F044
:10224000812F0E945202802F0E940C0CB2CF802F4F
:102250000E94160C812F0E945E02ABCF023F89F1D3
:1022600070F4003FC9F0013F91F0B11409F45DC072
:10227000A11409F457C0802F0E94490B9ACF033F45
:1022800039F1043F91F78091180282FD2DC0812F12
:102290008F71B11401F319C0B11481F035E0A316A8
:1022A00008F087CF1F7181E090E0012E01C0880FF8
:1022B0000A94EAF7909115028927B1CF86E0A81613
:1022C000EFCF812F8F71B110C6CF0E94520271CF14
:1022D00080E0B11409F4A3CF1F7181E0012E01C089
:1022E000880F0A94EAF79BCFB11489F01F71812FF0
:1022F0000E9452028091180282FF07C0812F880F2E
:10230000880F880F836080931602812FDECF81E0D3
:102310000E94040392E0A91608F44BCF82E00E94C9
:10232000040347CF812F8F71D0CFA11479F00933E7
:1023300049F4EFEFF7EE23E0E150F0402040E1F701
:1023400000C00000802F0E94B90B33CF812F8F7106
:1023500082CFF801E851FC47E730F10508F453CC8F
:1023600010920F02980130572332310508F028CD22
:1023700084E090E00E94BB1D9093180280931702A6
:10238000F801E150F047E232F10508F05DCCE65C7F
:10239000F14E0C945B1D80915A02803178F480914B
:1023A0005902811559F0E0911B0220911A023091D7
:1023B00055024091540257E02E1301C008956E2F2C
:1023C00070E05E9FF0011124DF01A45EBD4F149602
:1023D0008C911497811561F111968C91119783134B
:1023E00027C08C91841324C015968C911597811168
:1023F0001FC012968D919C91A0915602B0915702E8
:102400008A1B9B0B8738910598F480915A028F7034
:10241000806180935A02EE5DFD4F80818F708061F4
:10242000808384E592E00E94BE0C0E94FA02089527
:10243000FB013196E770C0CFADE0B0E0E2E2F2E13F
:102440000C946D1D8C0186E0F801DE011896019058
:102450000D928A95E1F7D8019C911596DC9015971D
:102460001296AD90BC90139714968C91149724E516
:10247000822E22E0922E70905802711018C08115A1
:1024800099F0D11409F461C1C8010E94B60A8115FE
:1024900009F45BC187E0F801A4E5B2E001900D9278
:1024A0008A95E1F70E94CB11FF24F39433C0E090AA
:1024B00059022091560230915702F501E21BF30BAD
:1024C000E11409F412C1E738F10508F0D5C081150F
:1024D00059F32091550211968C91C0905A02B0E1A7
:1024E000CB1608F094C0FD2C821319C02091540221
:1024F000291315C0D11085C08C2D8F7080618093F9
:102500005A0284E592E00E94BE0C80915A02F801C2
:102510008683F12C8F2D2D96EDE00C94891DD11022
:1025200070C0E0911B0220911A02AE2F37E0A21377
:1025300017C037E02E1337C0888599850E94A70AF7
:10254000292F22952F70903408F441C02A5F2F70F4
:10255000223008F450C0C8010E94BE0CFE2CDACF15
:102560004A2F50E03A9FD0011124A45EBD4F11962E
:102570006C911197861307C06C91961304C0159641
:102580006C91611104C0DA011196A770D0CF84E577
:1025900092E00E94BE0C87E0E4E5F2E0DF011D92CC
:1025A0008A95E9F7B6CF4E2F50E03E9FF0011124F7
:1025B000E45EFD4F6181861306C06081961303C0FF
:1025C00065816111A6CFFA013196E770B3CF9F7094
:1025D000223038F0911551F0F8019681903130F4A5
:1025E00099CF911519F0811509F494CF805E883048
:1025F00008F490CFB0CF803F08F48CCF815F833058
:10260000F7CF80915A02816080935A0282CF821361
:1026100015C080915402891311C0D1100FC0D80188
:102620001696CC92C8010E94BE0C87E0F801A4E582
:10263000B2E001900D928A95E1F736CFC8010E9471
:10264000B60A811509F481C0D11409F47EC08091C5
:102650005A02803208F41ECF8091540290915502A4
:102660009A838983BC82AB827D821E82CF82CE0117
:1026700001960E94BE0C0ECFF0905A02B0E1FB16FC
:1026800008F485CF811509F40FCF20915502F80188
:102690008181281310C08091540289130CC0D1107D
:1026A0000AC0F682C8010E94BE0C87E0D4011D92C8
:1026B0008A95E9F7F9CEC8010E94B60A811509F496
:1026C00044C0D11409F441C080915A02803208F408
:1026D000E1CE80915402909155029A838983BC8205
:1026E000AB827D821E82FF82C2CFE738F10588F57A
:1026F000811509F4D9CED11441F120915502F80188
:102700008181281318C080915402891314C08091CC
:102710005A0280FD8ACF803108F487CF8683807F7C
:10272000803F09F47FCF8681982F907F905F8F70D4
:10273000892B868377CFC8010E94B60A8111AACE61
:1027400080915A02816080935A02C8010E94BE0C97
:10275000ABCE87E0D40123CFABE1B0E0E2EBF3E115
:102760000C94771D4E8B5F8B688F798F8A8F9B8F30
:102770009111109219021D8A86E0FE017696DE0103
:102780001F9601900D928A95E1F78B89811529F0AA
:1027900061E0CE010F960E94870A87E0FE013F9616
:1027A000DE01189601900D928A95E1F7CE01089608
:1027B0000E941C1281112AC087E0FE013896DE01BA
:1027C000119601900D928A95E1F720911A0240919D
:1027D0001B028C858115D1F030E0C901019687700C
:1027E000992748171906E9F097E0929FD001939F27
:1027F000B00D1124A45EBD4FFE01319601900D92E3
:102800009A95E1F780931A020E94FA0217E08091EC
:102810001B0290911A02891312C06B96E3E00C948C
:10282000931D0E94770C10921A0210921B0287E0EF
:10283000E4E5F2E0DF011D928A95E9F7E7CF189F02
:10284000C0011124845E9D4F0E941C12811529F342
:1028500080911B0290E001968770992780931B025C
:10286000D6CFA6E0B0E0E7E3F4E10C94761D0E9439
:102870007F068C018091CB019091CC01801791074C
:1028800079F019821A820E947F06BC0149815A811F
:1028900080E090E00E94AC131093CC010093CB0138
:1028A0002696E4E00C94921DAAE2B0E0EAE5F4E199
:1028B0000C94771D81E991E0FC0101962091F100D3
:1028C000208321E089399207B9F7809192018930FC
:1028D00009F456C0C8F4823009F4B3C0833009F457
:1028E00082C0813071F18091E80083FFE8C080915F
:1028F0009101909192019A3008F0E1C0E92FF0E047
:10290000E45AF14E0C945B1D8A3009F489C08B3077
:1029100051F780919101813231F780919501909129
:102920009601892B01F78091E800877F8093E8006A
:102930000E940D088091930180930A010E94770CF8
:10294000D2CF80919101813A71F68091E800877F22
:102950008093E8008091950190919601892B61F018
:1029600060E080E090E070E00E94B4078091E800B1
:102970008B778093E800B7CF68E089E991E0F3CFE7
:1029800080919101813209F0AECF809195019091B3
:1029900096018D7F892B09F0A6CF8091E800877F73
:1029A0008093E8008091E80082FF18C09091F300C6
:1029B0008091F200029731F48091F100813011F0A2
:1029C000863021F48091F1008093A1018091E8008C
:1029D0008B778093E8000E940D0885CF8091CA0113
:1029E0008111E0CF80CF80919101813A09F07BCFB6
:1029F0008091950190919601892B09F074CF809177
:102A0000E800877F8093E8008091E80080FFFCCF9A
:102A100080910A018093F1008091E8008E77D9CFF0
:102A200080919101813209F05ECF8091E800877F2B
:102A30008093E8000E940D088091940180938D019D
:102A400052CF80919101813A09F04DCF8091E800F9
:102A5000877F8093E8008091E80080FFFCCF809121
:102A60008D01D8CF803889F0823849F58091950161
:102A70008F70873020F58093E9008091EB0085FB13
:102A8000882780F91092E90007C09091B3019195D1
:102A9000927080918E01892B9091E800977F90939E
:102AA000E8008093F1001092F1008091E8008E77A9
:102AB00023C0811116C080919301813011F1809162
:102AC000E80083FF0AC08091E800877F8093E800D8
:102AD0008091EB0080628093EB00AA96E3E00C9477
:102AE000931D823061F780919301811589F01092D6
:102AF000E9008091E800877F8093E8000E940D083C
:102B0000DECF81E0933009F080E08093B301EFCF16
:102B1000809195018F702FEF280F263080F68093DB
:102B2000E9002091EB0020FFE2CF933031F4809157
:102B3000EB0080628093EB00DACF9091EB00906124
:102B40009093EB0021E030E0A90102C0440F551F33
:102B50008A95E2F74093EA001092EA008091EB0038
:102B60008860E8CF8111ABCF109193011F778091DE
:102B7000E3008078812B8093E3008091E800877FD9
:102B80008093E8000E940D088091E80080FFFCCF50
:102B90008091E30080688093E30083E0111101C01D
:102BA00082E08093CA018BCF8058823008F087CFB3
:102BB00040919301509194014C3D83E0580799F561
:102BC00083E08A838AE289834FB7F894DE01139603
:102BD00020E03EE051E2E32FF0E050935700849173
:102BE00020FF03C082958F703F5F8F708A30C8F0DE
:102BF000895C90E08D939D932F5F243161F74FBFE7
:102C00008091E800877F8093E8006AE270E0CE015F
:102C100001960E94B4078091E8008B778093E800CA
:102C20004ECF805DE6CF8091950190919601252F42
:102C300033272330310509F44AC078F521303105B6
:102C400009F479C08BE590E0E8ECF1E02230310541
:102C500009F035CF2091E800277F2093E8002091EC
:102C60009701309198018217930708F49C0140E086
:102C70002115310509F064C0411162C08091E8005E
:102C800082FDC9CF8091CA01811529F2853019F2E0
:102C90008091E80083FFF2CFBECF2132310509F4E5
:102CA0003BC02232310509F00ACF8330910508F08C
:102CB00006CFFC01EE0FFF1FE25FFE4F0190F08197
:102CC000E02D855F9E4FDC018C9190E011C0CA0120
:102CD0009927413089F082309105B1F0892B09F0B4
:102CE000EECEE5E6F2E0E4918E2F90E0E5E6F2E04C
:102CF000009709F4E4CEAECFEBE4F2E0E4918E2F3E
:102D000090E0EBE4F2E0F4CFE5E3F2E0E4918E2F23
:102D100090E0E5E3F2E0ECCF8330910508F0CFCE10
:102D2000FC01EE0FFF1FEC5EFE4F0190F081E02DE5
:102D300089E090E08FCF82E190E0E3E2F2E08ACF99
:102D40008091CA01811509F466CF853009F463CFFB
:102D50008091E80083FD5FCF8091E80082FD8ECFF7
:102D60008091E80080FF84CF9091F3008091F20081
:102D70002115310519F08830910550F041E0089790
:102D800009F040E08091E8008E778093E80070CFF2
:102D900044914093F1003196215031090196E8CFDA
:102DA000803809F08CCE8091E800877F8093E8001E
:102DB00080918F018093F10078CE811180CE1091A7
:102DC0009301123008F07BCE8091E800877F8093DA
:102DD000E80010938F010E940D081115D1F084E0D6
:102DE0008093CA0142E061EC81E00E947B0842E2EC
:102DF00061EC84E00E947B0842E261EC82E00E9488
:102E00007B0842E260EC83E00E947B088091CA016B
:102E100056CE8091E30087FDE2CF81E0E1CFA8E0CC
:102E2000B0E0E5E1F7E10C946C1DFE01319688E01D
:102E3000DF011D928A95E9F79AE1A92E91E0B92E5A
:102E40008F012EE1E22E21E0F22E3F01CC24C3942B
:102E5000D12CF50181915F018F3F09F447C0F894AF
:102E6000E82FE295EF70F0E021A18F70A60102C07B
:102E7000440F551F8A95E2F7CA01922F982B91A310
:102E800092A18095892382A3789400C0EEE1F1E0BD
:102E900021E030E0812C912C41914F3F81F0A42F13
:102EA000A295AF70A05EB0E08C9190E04F7002C030
:102EB000959587954A95E2F781708115D9F180E063
:102EC00090E0882A992A220F331F51E0E832F50753
:102ED00019F7F501319780818F3F11F00E94590554
:102EE00080EA8A95F1F7D8018D929C920E5F1F4F70
:102EF000EA14FB0409F0ADCF48E050E0B3018AEAE0
:102F000091E00E94051E892BB9F088E0F301AAEA3E
:102F1000B1E001900D928A95E1F781E080938A01FA
:102F20000E947F0690938901809388012896EEE0A5
:102F30000C94881DC901C5CF80918A018115B1F318
:102F400080918801909189010E949107059770F303
:102F500048E050E06AEA71E082EC91E00E94051ED0
:102F6000892B49F088E0EAEAF1E0A2ECB1E00190B7
:102F70000D928A95E1F710928A01D8CFCDB7DEB7CE
:102F8000A0970FB6F894DEBF0FBECDBF85B780689F
:102F900085BF85B7806885BF84B7877F84BF0FB63C
:102FA000F894A895809160008861809360001092E9
:102FB00060000FBE80E890E00FB6F8948093610047
:102FC000909361000FBE87E595E090935F01809339
:102FD0005E010E945C080E94AB088091E200846060
:102FE0008093E20078948091CA01811599F08091D4
:102FF000E9001091EC001795112717958F70182B89
:103000001092E9008091E80083FD0E9454141F7023
:103010001093E90082E084BD93E095BD9AEF97BDDF
:1030200080936E000E94DE0A811102C00E940F0A86
:1030300081E30E94590583E30E94590582E30E94BF
:10304000590586E60E9459050EE111E0D8018D91DF
:103050008D018F3F11F00E945905B1E008321B0726
:10306000A9F788E0E2ECF1E0DF01282F1D922A9514
:10307000E9F7EAEAF1E0DF011D928A95E9F780E0DD
:1030800090E00E94BB1D863E9E4F21F40E94DE0A06
:10309000811168C066EE7EEF80E090E00E94EF1D37
:1030A00060E082E090E00E94D11D81E080931402F4
:1030B00061E083E090E00E94D11D60E074E184E073
:1030C00090E00E94EF1D60E086E090E00E94D11D3C
:1030D0006FEF87E090E00E94D11D40E050E0BA0120
:1030E00088E090E00E94E31D60E084E290E00E94AE
:1030F000D11D60E087E190E00E94D11D60E08CE08E
:1031000090E00E94D11D60E08DE090E00E94D11D12
:1031100019821A821B821C821D821E821F821886BF
:1031200048E050E068E170E0CE0101960E94C11DC8
:1031300040E050E0BA0180E290E00E94E31D80E0B0
:103140000E94F3090E940F0A40E050E0BA018FE0AC
:1031500090E00E94E31D40E050E0BA0183E190E07E
:103160000E94E31D82E090E00E94B31D8093B401B1
:1031700084E090E00E94BB1D909318028093170298
:103180000E940F17EFEFF6E721E0E150F0402040FA
:10319000E1F700C000000E940F178091C20180FF7C
:1031A00008C06FEF7FEF80E090E00E94EF1D0E946B
:1031B000A00783E090E00E94B31D0E944C0280E0D3
:1031C00091E09093EE018093ED0178E1472E512C30
:1031D000EDEB6E2EE1E07E2E8091CA01853049F440
:1031E0008091CA01853009F45AC00E94770C0E9470
:1031F000C5050E940F1755EBA52E51E0B52E62ECC8
:10320000862E61E0962ED401F501219131918D91A8
:103210009D916E167F0609F492C028173907A9F30D
:10322000312CD4010D911D914D01F501C190D1902A
:103230005F01C016D10661F1C026D126212CEE24F3
:10324000E394F12CC6018E219F21892BB9F02982AC
:103250003A820E947F069C838B83F1E0FD8391E09C
:1032600098012E213F21232B09F490E09E83498170
:103270005A816B817C818D810E94AC132394EE0C6A
:10328000FF1C2AE02212DECFF50132971183008362
:10329000339484E03812C5CF0E94850756C08091D0
:1032A000CA01843011F11092B20180E40FB6F89493
:1032B000A895409260000FBE8093600083B7817F25
:1032C000846083BF83B7816083BF7894889583B718
:1032D0008E7F83BF0FB6F894A895809160008861B7
:1032E00080936000109260000FBE8091B301811541
:1032F00009F476CF0E940F17E2ECF1E081919191F1
:10330000892B29F491E0EA3CF907C1F769CF80E104
:1033100089BD82E189BD09B400FEFDCF8091D8004E
:103320008F7D8093D8008091E00082608093E000E0
:103330008091E00081FDFCCF0E94770C51CF2817CF
:10334000390709F06DCF0E94311486E0E9E0F2E020
:10335000DE01119601900D928A95E1F7E0900A0244
:1033600000910B02F0900C02D0900D0210910E0211
:1033700010920B0210920C0210920D0210920E028B
:10338000802F8F29811509F445C08091BF0190914C
:10339000C0010E9491079C0180910702811509F4E8
:1033A00005C225313105B0F18F3F19F08F5F809351
:1033B0000702011559F00E94800591E010160CF0EB
:1033C0009FEF899F802D112480930B02F11459F0F7
:1033D0000E94800591E01F140CF09FEF899F802DC3
:1033E000112480930C0280910B02811599F0C090FA
:1033F0000C02C11479F00E947205811101C081E0B4
:1034000080930B028C2D0E947205811509F4A5C0D2
:1034100080930C028D2D812B811509F445C080917C
:10342000BD019091BE010E9491079C01809106020E
:10343000811509F4B6C121353105B0F18F3F19F07E
:103440008F5F80930602D11459F00E94A00591E08D
:103450001D140CF09FEF899F802D112480930D0285
:10346000111559F00E94A00591E011160CF09FEF84
:10347000899F802D112480930E0280910D02811569
:1034800099F0D0900E02D11479F00E94720581114A
:1034900001C081E080930D028D2D0E94720581157F
:1034A00009F45FC080930E0280910A02E81219C0ED
:1034B00080910B02811511F0801313C020910C0232
:1034C000211511F02F110DC090910E02911511F0E0
:1034D000911307C030910D02311103C0822B892B4B
:1034E00081110E948B0686E0FE013196A9E0B2E0D0
:1034F00001900D928A95E1F70E94C5059091C10156
:10350000891721F08093C1010E9485078091CA012B
:10351000843009F061CE83E08093E9008091E80077
:1035200082FF5ACE8091E80090E085FF05C00E949E
:103530002C088115D1F091E08091E8008B77809381
:10354000E800911509F448CEE981E150E331A8F58E
:10355000F0E0EA59F14E0C945B1D91E090930C025F
:1035600059CFA1E0A0930E029FCF00E210E0FE0130
:1035700031967F018091E80085FD0AC08091E800C6
:103580008B778093E8000E942C08811599F3D3CFA4
:103590008091F100D7018D937D010150104051F7CA
:1035A000CACF1A828CE08B831AC08A81833049F19A
:1035B00038F4813061F08230D9F08FEF89830FC009
:1035C0008430D9F71B821C821D821E8208C00E9493
:1035D00085070E94611D6B837C838D839E8340E2FF
:1035E00050E0BE016F5F7F4F82E00E940609F4CD7C
:1035F00088E290E00E94B31D1B821C821D828E8394
:10360000EECF8B8190E0FE013196329684309105A9
:1036100034F7DC01AA0FBB1FAE53BE4F2C9111969D
:103620003C91318322830196F0CF8A81823019F058
:103630008530A9F2C2CF6B817C818D819E810E94F1
:10364000611D88E290E00E94D11DC9CF4C816B8141
:103650008A810E941F0A9827892798279E838D8335
:10366000BECF2D813E813227232732274C816B81AB
:103670008A810E948309B3CF0E94AA09B0CF80E15A
:103680008A83ADCF82E08A8387E98DCFCA80DB80D1
:10369000DC24CD24DC248C817601E80EF11C8E0123
:1036A0000B5F1F4FEC14FD0409F499CF80E0B7E9DC
:1036B000CB16B2E0DB0628F4C60187599E4F0E9464
:1036C000B31DF80181938F01FFEFCF1ADF0AEACF14
:1036D0000A811B81102701271027CE0101966C015A
:1036E0008C817601E80EF11CEC14FD0409F477CF0F
:1036F000073992E0190740F4D60114966C91C8017D
:1037000087599E4F0E94D11D0F5F1F4FBFEFCB1AED
:10371000DB0AEACF0E94E30962CF84E0B1CFCA801E
:10372000DB80DC24CD24DC248C817601E80EF11CC6
:103730008E010B5F1F4FCE14DF0409F450CF80E0E1
:10374000E0E4CE16E1E0DE0620F4C60189960E9490
:10375000B31DD8018D938D01BFEFCB1ADB0AEBCFE0
:103760000A811B81102701271027FE0131966F0166
:103770008C817F01E80EF11CCE14DF0409F42FCFF9
:103780000034F1E01F0738F4D60114966C91C8019B
:1037900089960E94D11D0F5F1F4FBFEFCB1ADB0A26
:1037A000EBCF2B30310508F04BCE7ECE2B303105E0
:1037B00008F0FCCD2FCE1F921FB61F9211248F93BD
:1037C0009F93AF93BF938091B201811113C08091F9
:1037D000A2019091A301A091A401B091A5014196ED
:1037E000A11DB11D8093A2019093A301A093A401F8
:1037F000B093A501BF91AF919F918F911F901FBE74
:103800001F90189578941F921FB61F9211248F93C2
:103810009F93AF93BF938091A2019091A301A09138
:10382000A401B091A5010196A11DB11D8093A20133
:103830009093A301A093A401B093A501BF91AF9170
:103840009F918F911F901FBE1F9018951F920F92EE
:103850000FB60F9211242F933F934F935F936F9363
:103860007F938F939F93AF93BF93EF93FF93809139
:10387000E10082FF09C08091E20082FF05C08091D3
:10388000E1008B7F8093E1008091DA0080FF24C00B
:103890008091D80080FF20C08091DA008E7F8093D5
:1038A000DA008091D90080FF9BC080E189BD82E170
:1038B00089BD09B400FEFDCF81E08093CA018091EB
:1038C0009001811109C00E945C080E94AB088091A0
:1038D000E20084608093E2008091E10080FF17C0E5
:1038E0008091E20080FF13C08091E2008E7F809380
:1038F000E2008091E20080618093E2008091D80034
:1039000080628093D80019BC85E08093CA018091C1
:10391000E10084FF29C08091E20084FF25C080E19E
:1039200089BD82E189BD09B400FEFDCF8091D80038
:103930008F7D8093D8008091E1008F7E8093E1009D
:103940008091E2008F7E8093E2008091E2008160AE
:103950008093E20080918F01811509F447C084E0D3
:103960008093CA018091CA018091E10083FF27C042
:103970008091E20083FF23C08091E100877F8093E4
:10398000E10082E08093CA0110928F018091E100F2
:103990008E7F8093E1008091E2008E7F8093E20031
:1039A0008091E20080618093E20042E060E080E08C
:1039B0000E947B088091F00088608093F000FF9166
:1039C000EF91BF91AF919F918F917F916F915F9197
:1039D0004F913F912F910F900FBE0F901F90189510
:1039E00019BC1092CA011092900176CF8091E30029
:1039F00087FF02C083E0B4CF81E0B2CF1F920F9265
:103A00000FB60F921124FF920F931F932F933F93A2
:103A10004F935F936F937F938F939F93AF93BF93D6
:103A2000CF93DF93EF93FF9309EE10E0F8018081CD
:103A3000C091EC00C795CC27C7958F70FC2EF82A53
:103A40001082C0EFD0E08881877F888378940E94BD
:103A50005414F8011082888188608883CF2DCF703C
:103A6000C083FF91EF91DF91CF91BF91AF919F9173
:103A70008F917F916F915F914F913F912F911F9106
:103A80000F91FF900F900FBE0F901F90189597FB0E
:103A9000072E16F4009407D077FD09D00E949F1DD1
:103AA00007FC05D03EF4909581959F4F0895709541
:103AB00061957F4F0895EE0FFF1F0590F491E02D63
:103AC00009946927962769277827872778270895F3
:103AD0002F923F924F925F926F927F928F929F921E
:103AE000AF92BF92CF92DF92EF92FF920F931F930C
:103AF000CF93DF93CDB7DEB7CA1BDB0B0FB6F894BD
:103B0000DEBF0FBECDBF09942A88398848885F84FC
:103B10006E847D848C849B84AA84B984C884DF806D
:103B2000EE80FD800C811B81AA81B981CE0FD11D51
:103B30000FB6F894DEBF0FBECDBFED010895AA1BEE
:103B4000BB1B51E107C0AA1FBB1FA617B70710F088
:103B5000A61BB70B881F991F5A95A9F780959095BA
:103B6000BC01CD010895F999FECF92BD81BDF89AAF
:103B7000992780B50895A8E1B0E042E050E00C94A8
:103B8000F71DDC01A40FB51F4150504048F0CB0198
:103B9000840F951F2E910E94D21D41505040D0F7A6
:103BA0000895262FF999FECF92BD81BDF89A01970D
:103BB00000B4021639F01FBA20BD0FB6F894FA9A75
:103BC000F99A0FBE08950396272F0E94D21D0E94D6
:103BD000D11D252F0E94D21D242F0C94D21D019699
:103BE000272F0E94D21D0C94D11DDC01CB01FC01BA
:103BF000F999FECF06C0F2BDE1BDF89A319600B446
:103C00000D9241505040B8F70895FB01DC0104C00B
:103C10008D910190801921F441505040C8F7881BC4
:103C2000990B0895F894FFCFD206DA06DD06E30675
:103C3000F806F806F806F806F806F806F806F80694
:103C4000E606EB06EF06F50606070C071007110E51
:103C5000150E070E0D0E190E1D0E210EB70FB70F04
:103C6000F10FF10F8A10A5101D101D10AA101D11C3
:103C70002E112E11680ED20E700E3A0E3E0E740EDC
:103C8000420E780E840E4E0ECB0E520E880E560E3D
:103C90008C0EB30E5A0E900EBA0E600E960E9E0E3D
:103CA000460E7C0E4A0E800E640E9A0EAA0EC30EAD
:103CB000C90E340E6C0ED90E321559155F155915F3
:103CC0005F15B215D4155F15D016DD16D11AD51AA9
:103CD000151B261B311B3C1BDD1ADD1ADD1ADD1AF4
:103CE000DD1A3F1B421B461B681B8A1B8D1B8F1B4B
:023CF000B01B07
:103CF200B107400957095E096509014422B68401EA
:103D02006201AC00DA01F30113023133326690949E
:103D120097C6349392F5F6F7E200E900EA00B5009F
:103D2200B600B700CD008301CC008A019201940154
:103D32002102230224022502260227022A02B300BC
:0E3D4200B4006F0070009F01CB019F02A00231
:00000001FF
