:100000000C9462030C947F030C947F030C947F0385
:100010000C947F030C947F030C947F030C947F0358
:100020000C947F030C947F030C9468310C94403241
:100030000C941D310C947F030C947F030C947F036C
:100040000C947F030C947F030C947F030C947F0328
:100050000C947F030C9444310C947F030C947F0325
:100060000C947F030C947F030C947F030C947F0308
:100070000C947F030C947F030C947F030C947F03F8
:100080000C947F030C947F030C947F030C947F03E8
:100090000C947F030C947F030C947F030C947F03D8
:1000A0000C947F030C947F030C947F0305010902D9
:1000B000A10185020901A1000509190129081500FE
:1000C0002501950875018102050109300931158165
:1000D000257F95027508810609381581257F9501D0
:1000E00075088106050C0A38021581257F95017572
:1000F000088106C0C005010980A101850319012AF4
:10010000B700150126B700950175108100C0050CD8
:100110000901A101850419012AA002150126A002E6
:10012000950175108100C005010906A1018506052C
:100130000719E029E71500250195087501810205D9
:1001400007190029EF1500250195F07501810205B9
:10015000081901290595057501910295017503910D
:1001600001C00660FF0961A1010962150026FF00B8
:100170009520750881020963150026FF00952075FA
:10018000089102C005010906A101050719E029E748
:1001900015002501950875018102950175088101F9
:1001A0000507190029FF150026FF0095067508812F
:1001B000000508190129051500250195057501910E
:1001C00002950175039101C00000000000000000CD
:1001D000000000000000000000000000000000001F
:1001E0000000000000000000000000007E0F00D4AE
:1001F000FFFFFFC7000000780000000000000000C3
:100200002A2B280000000000000000000000000071
:1002100000000029000000002C1E3420212224347C
:100220002627252E362D3738271E1F20212223244E
:1002300025263333362E37381F0405060708090AEA
:100240000B0C0D0E0F101112131415161718191A86
:100250001B1C1D2F3130232D350405060708090A04
:100260000B0C0D0E0F101112131415161718191A66
:100270001B1C1D2F3130354C09025B00030100A00F
:10028000FA09040000010301010009211101000124
:10029000224400070581030800010904010002034C
:1002A000000000092111010001222200070582033C
:1002B00020000107050303200001090402000103D7
:1002C00000000009211101000122B6000705840386
:1002D00020000112010002000000084B5309000039
:1002E00001010203011C037600690061006C003A01
:1002F00000660036003400630032006200330063A1
:100300000000001403530063006F00740074006F5A
:100310000046006C00790000001803530063006F72
:1003200000740074006F004B00650065006200738C
:100330000000000403090414001A00080015001747
:10034000001C0018000C0012001300040016000727
:100350000009000A000B000D000E000F002A001D0E
:10036000221B00060019000500110010003600379E
:1003700000383200000000E300E2002C282B412866
:10038000422900000000002D022D002E022E003315
:10039000023500BC00AE00BB004C002F0226022735
:1003A000023002310229005000520051004F002F4C
:1003B0002234003402300033003502AA00A800A91C
:1003C00000313200000000010001000100010001C5
:1003D000000100000000001E021F02200221022274
:1003E0000223022402250239002A001E001F0020D9
:1003F000002100220023002400250026002700E120
:10040000000000000000002352000000003600370A
:10041000003832000000000100010001000100016D
:1004200000010000000000000000000000000000CB
:1004300000000000000000000000003A003B003C0B
:10044000003D003E003F00400041004200430044A8
:100450000000000000007C0100000000000000001F
:100460000045000000000001000100010001000142
:1004700000010000000000010001000C055E28746E
:100480002800000200020008055E2874280000030E
:100490000001000D055E287428000004000200F22F
:1004A000045E2874280B07050001000E055E287401
:1004B00028000006000200F4045E287428000007EB
:1004C0000002000A055E2874280000080001000FE1
:1004D000055E287428000009000200F6045E2874F6
:1004E0002814070A000200F8045E28742814070B79
:1004F000000200FA045E28742814070C000200FCB5
:10050000045E28742814070D000200FE045E28749F
:100510002814070E00020000055E28742814070F37
:1005200000020002055E287428140710000200046F
:10053000055E28742814071100020006055E287461
:100540002814071200020010055E2874280000130A
:1005500000020012055E2874280000140001001437
:10056000055E287428000015000000000039076CA3
:10057000110000FD377A585A000004E6D6B446024E
:1005800000210116000000742FE5A3E00447010ECE
:100590005D003D8889A654750A36E182AEFA7A1A62
:1005A000A6FCA2ED4951391A5E7177BBD0558A5F1E
:1005B00004BCAA647EE5D3B49857C974860BD13CB9
:1005C00057B902477435D2F1D8DA586BD1CAB03175
:1005D0009DB650169B091DEDA437AADF88C4C445FB
:1005E000D8D5C038A3DD4C535CE92BC84BD423AB22
:1005F0005DD321166421521D522E6CD8A4DD3F61BB
:100600009E5AD891A6703609DA44267651139C1664
:1006100050F314B39F093A5CEC1E217C76E2174D2F
:1006200003CD54E7DD49E5EECF6AB1A4870EA8A259
:10063000AE858C313B0B9D198C89E31BE634D94583
:10064000A2FB93E8D456A7B2217B29C7DB61CE0E6B
:10065000F61CF9FF9FA8C634B1525D69F61C72F80A
:100660003EC47C7B72FFD9D707D4B4F4C8FBEEB983
:1006700022E15D849B8D2B59CE73714AB2AFE56147
:1006800097DE1E8E39FFDC27C54C74EFC986931A9E
:100690006AAFA13FED37359BF216EC6D5757383AEC
:1006A000000000463A81D86205D1FF0001AA02C8C5
:1006B0000800006422F8BCB1C467FB02000000001F
:1006C00004595A0011241FBECFEFDAE0DEBFCDBFC0
:1006D00011E0A0E0B1E0E2E0F8E602C005900D9282
:1006E000A437B107D9F725E0A4E7B1E001C01D9216
:1006F000AA31B207E1F70E943D290C9485330C948E
:1007000000009C019A9581159F4118F5F901EE278B
:10071000F270832F8170B90166277470A901442794
:10072000587034FF0CC08295807FEF2B09F08062F7
:10073000672B09F08064452B69F080680895EF2BE2
:1007400009F08260672B09F08460452B19F08860FE
:10075000089580E00895CF93DF93EB010E94810319
:10076000FE010995DF91CF910895282F92959F70F2
:10077000963099F060F4925F9F70923030F4203F91
:1007800089F038F481E0283E38F080E008959A5FDF
:10079000F3CF81E0243FC9F7089581E0283EE0F3DC
:1007A000213FF9CF81E008958093F004089580936C
:1007B000F104089521E030E001C0220F8A95EAF7A4
:1007C0008091F104822B0E94D703089521E030E04C
:1007D000A90102C0440F551F8A95E2F7CA0180950E
:1007E0009091F10489230E94D7030895292F943012
:1007F00098F58A3088F590E03AE0239F800D911DAE
:100800001124282F277041E001C0440F2A95EAF7F0
:1008100023E0969587952A95E1F7FC01EE0FFF1FDF
:10082000E80FF91FEA58FC4F20E030E070E05191EA
:10083000DF011197CB01022E02C0969587950A948D
:10084000E2F7817081958527842385278C932F5F1C
:100850003F4F2330310559F70895292F943078F50B
:100860008A3068F590E03AE0239F800D911D1124B5
:10087000682F677023E0969587952A95E1F7FC012C
:10088000EE0FFF1FE80FF91FEA58FC4F40E050E061
:1008900080E0219130E0062E02C0369527950A941B
:1008A000E2F721703327042E01C0220F0A94EAF7E1
:1008B000822B4F5F5F4F4330510559F7089580E019
:1008C00008959091F10421E030E0F90101C0EE0FAC
:1008D0008A95EAF7D90102C0AA0FBB1F6A95E2F711
:1008E000EA2B01C0220F4A95EAF7892F8E23E813DD
:1008F00005C0892F822B0E94D70308952095822F4F
:100900008923F9CF8091240390912303981301C088
:1009100008958F5F8770FACF90913E048095892368
:1009200080933E04282F2770211111C0891779F078
:100930009091170592FF0BC08695869586950E942B
:10094000E60310923E041092400410923F04089572
:1009500090913B04982B90933B040895982F909589
:1009600080913B04892380933B04089580913A044D
:10097000811531F010923A04109239041092380423
:100980000895803E9105D9F1C8F48133910509F4A9
:1009900082C048F48932910509F472C08A32910507
:1009A00009F480C0089589339105E9F082389105F2
:1009B000D1F08533910509F45EC00895843E910518
:1009C000D9F148F4823E910539F1833E910549F110
:1009D00081EE90E00895863E9105C9F1873E91052C
:1009E00009F43EC00895209116052370211164C0BA
:1009F0002091170523FF14C089E290E0089520910B
:100A0000160520FD45C03091170530FF09C024FDB3
:100A100024C083EE90E008952091160522FDF7CFC3
:100A200008952091160522FD44C03091170530FD30
:100A300043C024FFF5CF11C02091170521FFF0CF4F
:100A40008091160584FD09C087EE90E008952091FD
:100A5000160523FFE5CF24FFF7CF80E090E008954F
:100A60002091160523FD2BC03091170531FFE1CFF2
:100A700084EE90E008952091160525FFD1CFBCCFDC
:100A80002091160525FD1EC02091170523FFC8CF14
:100A900089E390E008952091160526FFC1CF8AE2F0
:100AA00090E008952091160526FFBACF81E390E0EB
:100AB000089582EE90E0089580EE90E0089586EE2D
:100AC00090E0089585E390E008959091160592FFD7
:100AD00010C041E0282F2471243009F040E031E0BB
:100AE000282F2871283009F030E0431711F02CE04E
:100AF000822793FF10C041E0282F2471243109F090
:100B000040E031E0282F2871283109F030E0431708
:100B100011F02CE082273091170530FF10C051E012
:100B2000282F2171213009F050E041E0282F287151
:100B3000283009F040E0541711F029E0822731FFF6
:100B400010C041E0282F2171213109F040E031E04F
:100B5000282F2871283109F030E0431711F029E0DF
:100B6000822794FD877E08951F93CF93DF930E9481
:100B7000C104EC01811522E5920708F05DC08115E2
:100B800040E5940708F0DBC0803E910528F58D3CD8
:100B9000910508F0ACC0883A910578F4853A910542
:100BA00008F0A2C08130910509F441C00497813A50
:100BB0009105E8F1C0E0D0E03AC0885A91094B971E
:100BC000C8F7C85AD0E0CC0FDD1FC25CDE4F0990D9
:100BD000D881C02DD4642BC0811550E49507F8F45A
:100BE000C11580E2D80708F0C3C0C83ED105F8F0AF
:100BF000CE019A9581159F41E8F68D2F0E946505DB
:100C0000182FCE0199270E94C104212F30E0322FE6
:100C10002227E901CC27DF71C82BD92B08C09927DF
:100C20000E94C104CC27DF70C82BD92BD06ACE011B
:100C3000DF91CF911F910895803842E59407C8F560
:100C4000803652E5950708F05BC0C03482E5D807CE
:100C5000D0F4C03292E5D90708F04BC08C2F8695AE
:100C6000869520E2829FC0011124C37021E030E00C
:100C7000A90102C0440F551FCA95E2F7EA01C82B2B
:100C8000D92BDD68D4CF8C2F86958695877050E25E
:100C9000859FC0011124C37021E030E0A90102C08A
:100CA000440F551FCA95E2F7EA01C82BD92BDC681F
:100CB000BECF803C52E5950758F48F71C03AD245BB
:100CC000A0F590E0982F8827EC01C46FD06AAFCFD1
:100CD000805C9245809708F06DCFDC2FCC27CC2725
:100CE000DF71C06FD06AA3CFA497D064A0CFD065C6
:100CF0009ECFCF71D0E0DC2FCC27C16FD06A97CFC9
:100D000086958695877020E2829FC0011124C3706A
:100D100021E030E0A90102C0440F551FCA95E2F757
:100D2000EA01C82BD92BDA6882CF0E946505C82F4B
:100D3000D0E0DC2FCC27CC27DF71D06278CF8F7149
:100D40000E94650565E0D695C7956A95E1F7CF7075
:100D5000D0E0DC2FCC27282F30E084FF05C054E002
:100D6000220F331F5A95E1F7C22BD32BD0695FCFE7
:100D70008D2F8F710E946505182FCE0199270E9433
:100D8000C104212F30E0322F222722273F71282B48
:100D9000392BE901D2CF80E00895F894E82FE2954D
:100DA000EF70F0E041A18F7021E030E0B90102C0A6
:100DB000660F771F8A95E2F7CB01962F90959423C3
:100DC00091A392A1892B82A37894089581152CE791
:100DD000920741F42091F0023091F102232B11F49B
:100DE00080E090E00895E9EAF3E080E090E06FE6CB
:100DF00077E245E957E22AE038E277836683518754
:100E00004087338722879787868701967096883038
:100E1000910599F708958091F2049091F3049093CD
:100E20000F0180930E010895E2EFF4E08481958133
:100E30002AE030E0B9010E94893260931201868174
:100E4000809313018285809303018485809302013E
:100E500086859785B9010E94893260931001808947
:100E6000809311018289809301018489809300011C
:100E70000895A0E0B0E0EFE3F7E00C94C432FB018A
:100E80008FEF9FEF4430510508F465C0409116057F
:100E900041FB882780F990E0880F991F42FBAA2424
:100EA000A0F8B12CAA0CBB1CAA0CBB1C8A299B293C
:100EB00040FB882480F8912C8829992943FBCC2475
:100EC000C0F8D12C53E0CC0CDD1C5A95E1F78C29ED
:100ED0009D2944FBEE24E0F8F12C64E0EE0CFF1CAD
:100EE0006A95E1F78E299F2945FB002700F910E05C
:100EF00075E0000F111F7A95E1F7802B912B46FBCF
:100F0000222720F9C22F20E0D22FA6E0CC0FDD1F30
:100F1000AA95E1F78C2B9D2B47FB442740F920E84D
:100F2000429FA0011124842B952B20911705322F6D
:100F30003170932B26952170B22FBB0FA0E08A2B26
:100F40009B2B092E000CAA0BBB0B80839183A283E1
:100F5000B38380E090E0CDB7DEB7ECE00C94E032F4
:100F6000AC0123E0969587952A95E1F78E71992734
:100F7000FC01E354FE4F0190F081E02D4F705527A6
:100F800021E030E002C0220F331F4A95E2F76115DD
:100F900041F0E22BF32B83549E4FDC01ED93FC9345
:100FA000089520953095E223F323F5CF1092820423
:100FB00010928104E1E4F4E08581811102C0148281
:100FC0001682379684E0E937F807B1F70895AC0147
:100FD0003091840460918304232F621301C008952B
:100FE000822F90E0FC01EE0FFF1FE758FB4F0190AE
:100FF000F081E02DE417F50791F467E0649FF001BC
:10100000659FF00D1124EF5BFB4F41E044832313F8
:10101000E6CF019683709927809384040895019602
:10102000282F2370DACFFC018481862381110AC026
:1010300082818115B9F06823908593FF05C081E016
:1010400061110FC080E00895282F22952F708F70B6
:10105000282B962F92959F706F70962B81E0291305
:10106000F1CF089581E00895282F35EB2303C001C7
:10107000112497FF04C080589109892F0895805842
:101080009F4FFBCF809187036091FA047091FB041E
:1010900080FF16C020910301269FC001279F900D5D
:1010A0001124BC0176956795769567956038710532
:1010B00008F044C06115710509F442C0862F0895F7
:1010C00081FF0BC020910301269FC001279F900D37
:1010D0001124BC0176956795E9CF82FF09C0809104
:1010E00003019B01829FB001839F700D1124DECF0D
:1010F000809186038115D1F2909102012091030124
:1011000030E0891748F0CB01829FB001839F700DBA
:10111000929F700D1124CACF829FA001839F500D12
:101120001124469F9001479F300D569F300D11248A
:10113000692F70E0C9010E948932B8CF8FE7089506
:1011400081E008958091870380FF0CC060910101C8
:1011500070E075956795759567956115710561F1F5
:10116000862F089581FF06C06091010170E075959A
:101170006795F3CF6091010170E082FD15C0209169
:1011800085032115B1F0909100016091010170E09B
:10119000291750F4269FA001279F500D1124692F75
:1011A00070E0CA010E949D3260387105B0F28FE78D
:1011B000089561E070E0D4CF81E00895FA0130979E
:1011C00009F009950895E0911903F0911A033097F9
:1011D00029F00190F081E02D0995089580E00895AF
:1011E000A3E0B0E0E6EFF8E00C94CE329C018091F1
:1011F000BA019091BB0182179307A1F03093BB0114
:101200002093BA01E0911903F0911A03309751F03D
:1012100083E089833B832A830084F185E02DCE011E
:10122000019609952396E2E00C94EA32A3E0B0E03F
:10123000ECE1F9E00C94CE329C018091B8019091E0
:10124000B90182179307A1F03093B9012093B80137
:10125000E0911903F0911A03309751F084E08983EB
:101260003B832A830084F185E02DCE010196099508
:101270002396E2E00C94EA32909114019115C1F0AA
:101280009091160597FF14C0E82FE695E695E69530
:10129000803FF8F4F0E0E258FE4F877021E030E044
:1012A00001C0220F8A95EAF78281822B82830895FA
:1012B000A8E7B1E0EFEF90E02D91821751F0EF3FFA
:1012C00019F4211101C0E92F9F5F9630A9F7EF3F74
:1012D00009F408950E2E000CFF0BEA58FE4FE6CFDE
:1012E000909114019115E1F09091160597FF18C0A7
:1012F000E82FE695E695E695803FF0F4F0E0E258B9
:10130000FE4F877021E030E0A90102C0440F551F55
:101310008A95E2F7CA018095928189238283089594
:10132000E8E7F1E09191891303C0DF0111971C9266
:1013300051E0EE37F507B1F708952FB7F894809193
:10134000D3029091D402A091D502B091D6022FBFC2
:1013500008958091F4049091F504892B91F00E94F6
:101360009D092091380430913904AC01421B530B84
:101370009A0181E04091F4045091F5042417350757
:1013800008F480E081700895CF93DF93C0913B040F
:1013900080913D04C82B80913A04811549F18091D8
:1013A000F4049091F504892B29F00E94A909811178
:1013B0000E94B604D0913A0480911401811521F065
:1013C0008091160587FD1EC066E088E791E09C01CC
:1013D00040E0F90150812F5F3F4F51114F5F562F71
:1013E000521B580F5111F5CF41110E94B604CD2B5D
:1013F0008091990380958C2390919803892BDF919C
:10140000CF9108956EE180E891E0E1CF962F209191
:10141000170522FF10C0682F660F660F660F692B35
:1014200060933E040E94DA030E949D099093400459
:1014300080933F0408950E94DA03089590913A043E
:10144000292F2823211561F08095892380933A0460
:10145000811539F00E949D098093380490933904D6
:10146000089580E090E0F8CFCF93C82F80911705C2
:1014700082FF0CC080913A048C1741F00E949D09B4
:101480009093390480933804C0933A04CF9108951F
:101490000E949D0920918A0330918B03232B2115F3
:1014A00021F08093E1029093E20220918C0330912D
:1014B0008D03232B211521F08093DF029093E0020E
:1014C000E0911903F0911A03309749F082E080937C
:1014D00088030680F781E02D88E893E00995089558
:1014E00020918A0390918D0330918C03611509F44A
:1014F00058C040918B03242B292B232B211531F02D
:1015000098E09093860391E090938503E3E3E80FDE
:10151000E33150F4F0E0E957FC4C0C94B1320E94F6
:101520004208819580938B030E94480A08950E9487
:101530004208F8CF0E944208819580938A03F4CF35
:101540000E944208FACF0E94A20880938C03ECCF3D
:101550000E94A2088195F9CF0E94A20881958093EC
:101560008D03E2CF0E94A208FACF815D990B21E0A2
:1015700030E001C0220F8A95EAF780918903822B1F
:1015800080938903D1CF8091870381608093870303
:10159000CBCF809187038260F9CF809187038460ED
:1015A000F5CF8D3C59F480918B0387FF0DC01092CD
:1015B0008B03211559F41092860308C08E3C81F4E8
:1015C00080918B0318169CF3211581F080918C0378
:1015D00090918D03892B8111A7CF10928503A4CF01
:1015E0008F3C41F427FFF0CF10928A0380918B0348
:1015F0008115E0CF803D19F41216B4F3E5CF893D93
:1016000029F413160CF710928C03DECF8A3D19F4DF
:1016100037FFDACFF8CF8B3D29F497FFD5CF109263
:101620008D03D2CF8C3D19F41916CCF3CDCF9FE2A8
:10163000980F983090F4815D990B41E050E0BA0129
:1016400002C0660F771F8A95E2F7CB0180959091D3
:101650008903892380938903B7CF8D3D31F480912D
:1016600087038E7F80938703AFCF8E3D21F48091D7
:1016700087038D7FF7CF8F3D09F0A6CF8091870339
:101680008B7FF0CF2FB7F8946091D3027091D40282
:101690008091D5029091D6022FBF08950F931F938A
:1016A000CF93DF93D82FC92F40919F035091A00370
:1016B0006091A1037091A2032FB7F8948091D30297
:1016C0009091D402A091D502B091D6022FBF841B75
:1016D000950BA60BB70B843F9140A105B10528F5EA
:1016E00060919F037091A0038091A1039091A20348
:1016F00004EF11E020E030E06093DB027093DC0245
:101700008093DD029093DE020093D7021093D802FB
:101710002093D9023093DA02D0939D03C0939E03A5
:10172000DF91CF911F910F9108950E94420B02E328
:1017300010E020E030E0E0CF9C014FB7F8948091BA
:10174000D3029091D402A091D502B091D6024FBF9E
:10175000821B930B089587E797E790930108809386
:10176000000888E19AE00FB6F894A895809360008D
:101770000FBE90936000FFCF8091B7010895FC01E8
:101780009B018091AD019091AE018617970740F0C3
:10179000672B29F48091E8008E778093E800C901D7
:1017A00040E0009741F4411106C08091E80082FFBB
:1017B0002FC080E008952091F2022115A9F1253073
:1017C000A9F12091E80023FD2DC02091E80022FD21
:1017D000ECCF2091E80020FFE4CF3091F30020917E
:1017E000F200009719F02830310558F041E0283018
:1017F000310509F040E02091E8002E772093E800C1
:10180000D0CF41914093F10001972F5F3F4FE9CF37
:101810008091F202811541F0853041F08091E8001D
:1018200083FFC3CF81E0089582E0089583E00895A7
:101830008091A70187FF13C08091E80082FF06C056
:101840008091E8008B778093E80008958091F20200
:101850008111F2CF08958091F2028115D9F3809120
:10186000E80080FFF8CF8091E8008E77ECCF2091E0
:10187000E4003091E50095E6A9018091EC008170CB
:10188000811531F08091E80080FF06C080E0089566
:101890002091E80022FD1AC08091F202811589F0A2
:1018A000853089F08091EB0085FD0FC02091E40028
:1018B0003091E5004217530701F39A95E9F684E069
:1018C000089582E0089583E0089581E00895E8EDA9
:1018D000F0E080818E7F80831092E2001092DA0027
:1018E0001092E100A0EEB0E08C9181608C93808139
:1018F0008F77808319BCA7EDB0E08C918E7F8C939D
:1019000080818F7E80831092A6010895982F9093F6
:10191000E900242F762F50E0981731F07091EC00F9
:101920002091ED005091F00021FD06C09F5F97309F
:1019300071F78093E90008953091EB003E7F30937A
:10194000EB003091ED003D7F3093ED003091EB00E6
:1019500031603093EB007093EC002093ED005093D6
:10196000F0002091EE0027FDE1CF0895A0E0B0E067
:10197000ECEBFCE00C94C832C8EDD0E088818F7E9F
:101980008883E7EDF0E080818160808384E082BF1E
:1019900081E08093A60188818E7F888302EE10E02B
:1019A000F80110821092DA0081EEC82ED12CF601D7
:1019B000108288818F778883888180688883888176
:1019C0008F7D888319BC1092F2021092A5011092AB
:1019D000C9021092A40190EEE92EF12CF70180814A
:1019E0008B7F808388818160888342E060E080E033
:1019F0000E94860CF60180818E7F8083F8018081B1
:101A000081608083808188608083F70180818E7F00
:101A10008083888180618883CDB7DEB7E8E00C944D
:101A2000E4329C012115310509F408958FE99FE006
:101A30000197F1F700C0000021503109F3CF0F9357
:101A40001F93CF93DF938B01EA019091F2029430C0
:101A500059F58093E9008FEF9091E80095FD06C05D
:101A600095ED9A95F1F700008A95B1F78091E8001D
:101A700085FF1AC00E94370C811111C08091E800C7
:101A800085FD06C08091E8008E778093E800F2CF54
:101A9000F80181918F018093F100219779F780916E
:101AA000E8008E778093E800DF91CF911F910F912E
:101AB0000895CF93DF93D82FC92F48E050E0682FC7
:101AC000792F81E00E941F0D88E0ED2FFC2FAFEAF7
:101AD000B1E001900D928A95E1F7DF91CF910895E1
:101AE000BC0140E250E084E00E941F0D0895BC015B
:101AF00046E050E084E00E941F0D0895BC0143E0E1
:101B000050E084E00E941F0D08959091170592FB0C
:101B1000222720F9281779F080FB92F99093170576
:101B2000609116057091170584E090E00E9467337C
:101B300082E00E948C0408951F93CF93DF93962F29
:101B4000122F632F282F292B2430C8F44A30B8F4E1
:101B5000C42FD0E0CC0FDD1F24E1929FC00DD11D1A
:101B6000112490E5899FC00DD11D1124CE018996C5
:101B70000E944933612FCE018A960E944933DF913A
:101B8000CF911F910895CF93DF93CDE7D2E060E02E
:101B9000CE010E9449332196C11584E0D807B9F7D8
:101BA000DF91CF910895CF93C82F69EB811101C0C8
:101BB0006FEF85E290E00E9449336AE0C11101C0F5
:101BC0006FEF86E290E00E9449336AEDC11101C0D7
:101BD0006FEF87E290E00E944933CF9108950F9311
:101BE0001F93CF93DF9302EF14E0C9E6D1E0CE015B
:101BF0000E942B33F80161918F01681719F0CE0113
:101C00000E9449332196CD38F1E0DF0781F7DF915B
:101C1000CF911F910F9108950F931F93CF93DF934F
:101C200002EF14E0C9E6D1E0CE010E942B33F801A7
:101C300081938F012196CD38F1E0DF07A9F7C1E844
:101C4000D4E0FE0185919491009711F0FC01099573
:101C50002C96F5E0CD37DF07A1F7DF91CF911F91EB
:101C60000F9108950F931F93CF93DF93982F962B87
:101C7000943020F54A3010F5C42FD0E0CC0FDD1F92
:101C800024E1629FC00DD11D112430E5839FC00D5A
:101C9000D11D1124CE0189960E942B33082F10E00C
:101CA000102F0027CE018A960E942B339801282BF3
:101CB000C901DF91CF911F910F91089580E090E0CD
:101CC000F8CF462F672F2091F5023091F602232B93
:101CD00091F4703F39F4403F71F48091F302909198
:101CE000F4020895982F972B943028F44A3018F472
:101CF0000E94320E089580E090E00895A0E0B0E0E8
:101D0000E4E8FEE00C94C9327C010091F10480917A
:101D1000F004082BC3E0D0E010E0C8010C2E02C094
:101D2000959587950A94E2F780FD09C02197A8F759
:101D3000D12C8D2DCDB7DEB7E7E00C94E532DC2E4B
:101D4000B7018C2F0E94610E0E94B405019771F3B8
:101D5000F0CFCF93DF93D82FC92F0E947E0E6D2F27
:101D60007C2F0E94610E0E94B405DF91CF910895EF
:101D7000FC018481811571F087819085009729F09D
:101D80000E94B4050E94B5030895808191810E944C
:101D9000A90EF8CF80E008951F93CF93DF93182FFB
:101DA000D92F611599F0411589F00E947E0EC82F38
:101DB000682F812F9D2F0E94F603612F7D2F8C2F7E
:101DC0000E94610EDF91CF911F9108950E942D0412
:101DD000C82FF3CFFC01462F87819085009729F407
:101DE0006581808191810E94CC0E089585E290E00A
:101DF0000E942B33893B89F486E290E00E942B33CA
:101E00008A3059F487E290E00E942B3391E08A3DBA
:101E100009F090E0892F8170089580E0FCCF8091D7
:101E20001401811559F18091160587FF27C00E9482
:101E3000C40980937F0140E250E069EF72E08EE7D1
:101E400091E00E94FE32892BC1F080E2EEE7F1E0E2
:101E5000A9EFB2E001900D928A95E1F7E0911903A4
:101E6000F0911A03309749F086E080937E01048058
:101E7000F581E02D8EE791E0099508950E94C4094F
:101E80008093760148E050E06BE173E086E791E0F3
:101E90000E94FE32892B89F388E0E6E7F1E0ABE1AE
:101EA000B3E001900D928A95E1F7E0911903F0916A
:101EB0001A03309711F30280F381E02D86E791E059
:101EC000DBCF811521F00E94A8040E940F0F089516
:101ED000811539F090913D04892B80933D040E9437
:101EE0000F0F0895811521F00E94AE040E940F0F7C
:101EF0000895811541F0809590913D048923809348
:101F00003D040E940F0F0895CF93C82F8115B9F19A
:101F10008CEF8C0F813AA8F580911401811501F1A5
:101F20008091160587FF1CC0EC2FE695E695E69597
:101F3000F0E0E258FE4F828190E04C2F477021E0A4
:101F400030E002C0220F331F4A95E2F78223932329
:101F5000892B81F08C2F0E9470090E940F0F0AC0FC
:101F6000E8E7F1E08EE791E02191C21799F38E172F
:101F70009F07D1F78C2F0E943C090E940F0FCF9131
:101F8000089580E28C0F883048F4C77081E001C06A
:101F9000880FCA95EAF70E94A804EFCF8BE58C0F53
:101FA000833038F42C2F2452330BC9010E94F008DF
:101FB000E6CFE8E5EC0FEB3150F4F0E0EE0FFF1F59
:101FC000E25CFE4F808191810E941609D8CF83E3A5
:101FD0008C0F8331A0F661E08C2F0E94700ACFCF66
:101FE000CF93DF93EC01805E9109089720F068E6BB
:101FF0007FE0209711F461E67FE0CE010E94AB0301
:102000008C2F0E94840FDF91CF910895611529F0E4
:1020100020913D04226020933D049C013052211503
:10202000304308F499270E94F00F0895811581F13B
:102030009CEF980F913A28F40E9470090E940F0FAC
:10204000089590E2980F983050F4877091E001C0A5
:10205000990F8A95EAF7892F0E94AE04EFCF9BE58E
:10206000980F933028F480E090E00E94F0080895E3
:1020700098E5980F9B3128F480E090E00E941609C3
:10208000089593E3980F933118F460E00E94700A6A
:102090000895CF93DF93EC010E941610CE01805E6D
:1020A0009109089720F069E77FE0209711F462E733
:1020B0007FE0CE010E94AB03DF91CF9108950F9393
:1020C0001F93CF93C82F00911205109113058933E8
:1020D00021F000911005109111058C2F0E94840FA2
:1020E0000115110539F48C2F0E941610CF911F9104
:1020F0000F9108958FE99FE00197F1F700C000006C
:1021000001501109EDCFA0E0B0E0E9E8F0E10C9456
:10211000C732EC018881811509F492C08130E1F564
:1021200099818A81913021F422960E945F1005C026
:10213000923029F422960E94840F2196EBCF93309F
:1021400021F422960E941610F8CF943011F02196B7
:10215000F4CF229620E030E06AE0AE014F5F5F4F9F
:102160008053990B8A30910560F02115310529F3D0
:102170008FE99FE00197F1F700C00000215031097D
:10218000F4CF629FF001639FF00D11249C012E0F8C
:102190003F1F8981EA01E1CFE82FF0E0E850FE4FD0
:1021A000B490282F26952695269530E0F901E85120
:1021B000FE4FE4908770F12C082E02C0F594E7944E
:1021C0000A94E2F791E0E922FF24F901E852FE4F78
:1021D000C490D12C082E02C0D594C7940A94E2F77B
:1021E00091E0C922DD24F901E853FE4F049110E08B
:1021F00002C0159507958A95E2F701701127E11441
:10220000F10419F081EE0E94840FC114D10419F079
:1022100086EE0E94840F8B2D0E945F10C114D104A2
:1022200019F086EE0E941610E114F10419F081EE07
:102230000E9416100115110509F47FCF8CE275CFAD
:10224000CDB7DEB7E9E00C94E33210923B04809105
:102250001401811539F18091160587FF23C0E0E84C
:10226000F1E08EE1DF011D928A95E9F780E090E0D0
:102270000E94F00880E090E00E94160910923D0450
:102280000E940F0F86E0E8E8F3E0DF011D928A95D7
:10229000E9F71092860310928503109287030E943B
:1022A000480A0895E8E7F1E086E0DCCF0E942511B6
:1022B0002FEF84E39CE0215080409040E1F700C084
:1022C000000088E19AE00FB6F894A895809360002A
:1022D0000FBE90936000FFCFCF92DF92EF92FF92FC
:1022E000FB018FEF9FEF4430510508F481C0C0809F
:1022F000D180E280F3800E942511D701C601B695F6
:10230000A795979587958170282F220FD701C60131
:1023100081709927AA27BB27822BB701A60132E03B
:1023200076956795579547953A95D1F74170440F43
:10233000440F842BB701A601E3E076956795579586
:102340004795EA95D1F74170440F440F440F842B11
:10235000B701A601F4E07695679557954795FA95EC
:10236000D1F741704295407F842BB701A601A5E0CB
:102370007695679557954795AA95D1F741704295FF
:10238000440F407E842BB701A601B6E07695679591
:1023900057954795BA95D1F741704295440F440F30
:1023A000407C842BB701A60197E0769567955795F9
:1023B00047959A95D1F7479544274795842B809365
:1023C0001605D1FA882780F9880F9D2D9170892BE9
:1023D000909117059C7F892B8093170560911605B6
:1023E0007091170584E090E00E94673380E090E0F0
:1023F000FF90EF90DF90CF900895E2EFF4E0128E1F
:10240000138E8FEA90E09183808325E0248F88E803
:1024100093E1938382838AE090E09583848344E10F
:1024200050E05783468348E050E0518740879387C8
:1024300082876EE170E0758764879787868780E57D
:1024400090E0918B808B538B428B48E250E0558B10
:10245000448B42E350E0578B468B47E850E0518F66
:10246000408F158E178E168E91A380A322A30E94F3
:10247000EF0D0E942511109217051092160580E0AD
:1024800084608093170560E074E084E090E00E942F
:1024900067330E940C0E0895AAE2B0E0E2E5F2E193
:1024A0000C94CD3287EA91E0FC0101962091F10075
:1024B000208321E08F3A9207B9F78091A8018930F3
:1024C00009F456C0C8F4823009F4B3C0833009F46B
:1024D00082C0813071F18091E80083FFE8C0809173
:1024E000A7019091A8019A3008F0E1C0E92FF0E02F
:1024F000E656FC4C0C94B1328A3009F489C08B301A
:1025000051F78091A701813231F78091AB01909111
:10251000AC01892B01F78091E800877F8093E80068
:102520000E94180C8091A901809314010E9425112A
:10253000D2CF8091A701813A71F68091E800877F20
:102540008093E8008091AB019091AC01892B61F000
:1025500060E080E090E070E00E94BF0B8091E800B6
:102560008B778093E800B7CF68E08FEA91E0F3CFF4
:102570008091A701813209F0AECF8091AB0190919B
:10258000AC018D7F892B09F0A6CF8091E800877F71
:102590008093E8008091E80082FF18C09091F300DA
:1025A0008091F200029731F48091F100813011F0B6
:1025B000863021F48091F1008093B7018091E8008A
:1025C0008B778093E8000E94180C85CF8091F202EF
:1025D0008111E0CF80CF8091A701813A09F07BCFB4
:1025E0008091AB019091AC01892B09F074CF80915F
:1025F000E800877F8093E8008091E80080FFFCCFAF
:10260000809114018093F1008091E8008E77D9CFFA
:102610008091A701813209F05ECF8091E800877F29
:102620008093E8000E94180C8091AA018093A30176
:1026300052CF8091A701813A09F04DCF8091E800F7
:10264000877F8093E8008091E80080FFFCCF809135
:10265000A301D8CF803889F0823849F58091AB0149
:102660008F70873020F58093E9008091EB0085FB27
:10267000882780F91092E90007C09091C9029195CE
:1026800092708091A401892B9091E800977F90939C
:10269000E8008093F1001092F1008091E8008E77BD
:1026A00023C0811116C08091A901813011F1809160
:1026B000E80083FF0AC08091E800877F8093E800EC
:1026C0008091EB0080628093EB00AA96E3E00C948B
:1026D000E932823061F78091A901811589F0109269
:1026E000E9008091E800877F8093E8000E94180C41
:1026F000DECF81E0933009F080E08093C902EFCF14
:102700008091AB018F702FEF280F263080F68093D9
:10271000E9002091EB0020FFE2CF933031F480916B
:10272000EB0080628093EB00DACF9091EB00906138
:102730009093EB0021E030E0A90102C0440F551F47
:102740008A95E2F74093EA001092EA008091EB004C
:102750008860E8CF8111ABCF1091A9011F778091DC
:10276000E3008078812B8093E3008091E800877FED
:102770008093E8000E94180C8091E80080FFFCCF55
:102780008091E30080688093E30083E0111101C031
:1027900082E08093F2028BCF8058823008F087CF9E
:1027A0004091A9015091AA014C3D83E0580799F549
:1027B00083E08A838AE289834FB7F894DE01139617
:1027C00020E03EE051E2E32FF0E050935700849187
:1027D00020FF03C082958F703F5F8F708A30C8F0F2
:1027E000895C90E08D939D932F5F243161F74FBFFB
:1027F0008091E800877F8093E8006AE270E0CE0174
:1028000001960E94BF0B8091E8008B778093E800CF
:102810004ECF805DE6CF8091AB019091AC01252F2A
:1028200033272330310509F44AC078F521303105CA
:1028300009F483C08BE590E0E8E7F2E0223031054F
:1028400009F035CF2091E800277F2093E800209100
:10285000AD013091AE018217930708F49C0140E06E
:102860002115310509F06EC041116CC08091E8005E
:1028700082FDC9CF8091F202811529F2853019F2CB
:102880008091E80083FFF2CFBECF2132310509F4F9
:1028900045C02232310509F00ACF8330910508F096
:1028A00006CFFC01EE0FFF1FEC5DFE4F0190F081A3
:1028B000E02D8F5D9E4FDC018C9190E010C0CA012D
:1028C0009927423019F18330910568F4892BB1F4CE
:1028D000E3E3F3E0E4918E2F90E0E3E3F3E000978D
:1028E00009F4E5CEAFCF039709F0E1CEE5EEF2E0D3
:1028F000E4918E2F90E0E5EEF2E0F1CFE9E1F3E034
:10290000E4918E2F90E0E9E1F3E0E9CFE3E0F3E03A
:10291000E4918E2F90E0E3E0F3E0E1CF8330910586
:1029200008F0C5CEFC01EE0FFF1FE65DFE4F0190E3
:10293000F081E02D89E090E085CF82E190E0E3ED49
:10294000F2E080CF8091F202811509F45CCF8530EE
:1029500009F459CF8091E80083FD55CF8091E800BC
:1029600082FD84CF8091E80080FF7ACF9091F300C0
:102970008091F2002115310519F08830910550F051
:1029800041E0089709F040E08091E8008E7780935D
:10299000E80066CF44914093F1003196215031090F
:1029A0000196E8CF803809F082CE8091E800877FD9
:1029B0008093E8008091A5018093F1006ECE811193
:1029C00076CE1091A901123008F071CE8091E80006
:1029D000877F8093E8001093A5010E94180C1115C1
:1029E000D1F084E08093F20242E061EC81E00E9449
:1029F000860C42E261EC84E00E94860C42E261ECCB
:102A000082E00E94860C42E260EC83E00E94860C29
:102A10008091F2024CCE8091E30087FDE2CF81E00D
:102A2000E1CF80911601877F8093160190913D043C
:102A30009D7F90933D0484FF06C08F7E8093160196
:102A400082E00E94A8048091160185FF06C08F7D58
:102A50008093160180E20E94A8040E940F0F08953F
:102A6000CF92DF92FF920F931F93CF93DF93EC01EE
:102A70008B01F42E8091160182FF66C0C0902B045A
:102A8000D0902C04CC16DD0619F0209709F05CC01C
:102A9000809116018B7F80931601C1E081FD10C0EB
:102AA0008091290490912A049801281B390BC1E0D8
:102AB00080910E0190910F012817390708F4C0E0AA
:102AC000C17080911601C0FB81F9809316016C2FB3
:102AD000C6010E94B00780913B0481FF08C080912D
:102AE000160180618093160182E00E94AE048091FD
:102AF0003B0485FF08C08091160180628093160117
:102B000080E20E94AE046C2FC6010E940610F114F0
:102B100031F080910D0585FF02C086FF29C08091AC
:102B20001005909111050E94110D80912B04909138
:102B30002C049C0130522115304308F499270E943F
:102B400049100E94111510C0CE019052811590437A
:102B5000B8F4CE0199270E94491080912B049091DE
:102B60002C04C817D90769F310932A040093290489
:102B7000DF91CF911F910F91FF90DF90CF9008953B
:102B8000CE01E9CFCF93DF93EC014A855B856E855B
:102B90007F850E94DE089B81909580913D0489236A
:102BA00080933D048C810E94AE040E940F0F86E04A
:102BB000FE0111928A95E9F7DF91CF910895CF93A5
:102BC000DF93EC018D8181FD14C082608D83809143
:102BD0003D049B81892B80933D048C810E94A80435
:102BE0000E940F0F488559856E857F85CE010E9412
:102BF000DE081092A6031092A5038D8180FD03C00C
:102C0000CE010E94C215DF91CF9108951F93CF93FB
:102C1000DF93182FA0919B03B0919C03109709F4A8
:102C20004AC010929E0310929D0310929903109235
:102C300098031696CD91DC911797CE019A95811540
:102C40009F4108F4D07ED1E0C11101C0D0E01996B7
:102C5000ED91FC911A97309731F01B966D917C9114
:102C600080E00995D823D11539F08CEF8C0F813A8B
:102C700030F58C2F0E9470091115A9F0E0919B038B
:102C8000F0919C03808584FD0EC080919A0381158C
:102C900051F0808191819C01215031092F333E47B1
:102CA00010F40E944E0B0E940F0F10929C03109282
:102CB0009B0310929A03DF91CF911F9108950E9478
:102CC0000F0F8C2F0E941610D7CFAEE1B0E0EBE6CD
:102CD000F6E10C94C332A090F002B090F10281E0D2
:102CE00090E09093F1028093F002812C912CE12CE2
:102CF0006401F12C15C0F80125913491472D6F2DF9
:102D00008E2D0E949C0D0E5F1F4F73948AE07812E7
:102D1000F2CFAAE0CA0ED11CF394B4E0FB1639F04E
:102D20008601000F111F095C1C4F712CE4CFE39446
:102D300088E2880E911CA4E0EA12DACF0E94FD110D
:102D40001A8219821C821B821E821D8218861F8293
:102D500087E890E09A8789870DE811E04AE050E023
:102D6000B801CE0101960E946D33065F1F4F0D3DE5
:102D7000B1E01B0799F7FE013B968AE0DF011D9247
:102D80008A95E9F77F014AE050E0B801C7010E9447
:102D90006D33065F1F4F0D32B2E01B07A1F7FE0136
:102DA000759689E0DF011D928A95E9F78FEF9FEF15
:102DB0009A8F898F87E08E8F7F014AE050E0B801BB
:102DC000C7010E946D33065F1F4F0D37B2E01B072E
:102DD000A1F7B092F102A092F0026E96EDE00C9491
:102DE000DF3280E00E94D30D60E088E290E00E9434
:102DF00049330E9465160E94C30D81E00E94D30DE5
:102E00000895AAE0B0E0E7E0F7E10C94C832E8E604
:102E1000F2E080E5DF011D928A95E9F7E1E4F4E054
:102E200088E3DF011D928A95E9F788E6C82E82E0E3
:102E3000D82E7F010DED11E0F701D182C0824AE06A
:102E400050E0B801CE0101960E941B3388E0FE01DC
:102E50003196D60101900D928A95E1F789859A8580
:102E6000D70113969C938E931297BAE0CB0ED11C88
:102E7000E7E0EE0EF11C065F1F4F0D32F2E01F0778
:102E8000D9F62A96E8E00C94E432AAE0B0E0EBE44C
:102E9000F7E10C94C43200EF11E08EEDC82E81E012
:102EA000D82E9DE2E92E92E0F92E27E0922E3DEDFC
:102EB000A32E31E0B32E88248394D6010D931D9365
:102EC0006D014AE050E0B701CE0101960E941B332C
:102ED000F8013896DF01892D1D928A95E9F78981DD
:102EE0009A81D80111969C938E938F8112968C9320
:102EF00012978D8113968C931397888514968C93D3
:102F00001497898515968C9315978B819C811796BC
:102F10009C938E9316978A8587FD04C01E96BC925B
:102F2000AE921D9780FF02C0F801808681FF07C026
:102F3000D80118969C911897926018969C9382FFDE
:102F400004C0F80190859460908783FF07C0D80182
:102F500018969C911897986018969C9384FF04C0CB
:102F6000F80190859061908785FF07C0D801189679
:102F70008C911897806218968C93015F1F4FBAE06E
:102F8000EB0EF11CEDE7EE16E2E0FE0609F095CF40
:102F90002A96ECE00C94E032282FCB01283070F414
:102FA0004AE0249F90011124B90163577E4F4AE003
:102FB00050E00E941B3380E090E008958FEF9FEF78
:102FC0000895AAE0B0E0E7EEF7E10C94CE329C0160
:102FD00097558115914070F4BE016F5F7F4F822F2E
:102FE0000E94CC17892B31F489859A852A96E2E0D4
:102FF0000C94EA3280910A0590910B05F7CFA0E07E
:10300000B0E0E5E0F8E10C94C932162FD72FC42FB9
:10301000D22E8115A9F0409336040E949D09909309
:10302000A2018093A101C77081E001C0880FCA95F9
:10303000EAF70E94610FCDB7DEB7E7E00C94E53206
:1030400090913604491335C08091A1019091A2015D
:103050000E949C0B7C01812F9D2F0E94E117E81696
:10306000F90638F5D0E2DD0DCD15A1F0C77011E0FD
:10307000812F01C0880FCA95EAF70E94720FD830DD
:1030800048F48D2D877001C0110F8A95EAF7812FC2
:103090000E94610F802F0E945F10D83060F62D2DA6
:1030A000277081E001C0880F2A95EAF70E94720F0D
:1030B000C2CFC77081E001C0880FCA95EAF7F6CF8A
:1030C000A6E0B0E0E6E6F8E10C94BE327C01DC015B
:1030D00014968C91811509F457C161E0C7010E94D3
:1030E000EA0E8C01F7018581811519F18091A50304
:1030F0009091A6030097E9F008171907D1F09927D6
:1031000054E0880F991F5A95E1F7FC01E255FC4FF6
:1031100020812460208387559C4FDC010D931C93F4
:103120000E94DF1510923D0461E0C7010E94EA0E83
:103130008C01F7018581811509F4B2C0C801975748
:103140008038910508F0DEC0D02EF0E10F1708F0AE
:103150000AC18FEF93E00E942B33811104C10DE768
:1031600012E0D11036C0FE01319684E0DF011D92DD
:103170008A95E9F74F016801BFEFCB1ADB0AC80156
:103180000E942B3389831A82811509F4ECC08130A7
:1031900009F081C05801E2E0AE0EB11CC6010E94E8
:1031A0002B33D82E8A83811509F4DDC0C5010E9416
:1031B0002B33C82E8FEF8D0D8330C8F4CB82C11412
:1031C00019F0C4010E9483100D5F1F4F5801850143
:1031D000D2CF011524E0120709F4C5C0C8010E942E
:1031E0002B33811101C0DA940F5F1F4FBACF8BEFE1
:1031F0008D0D833038F5580123E0A20EB11CCB822F
:10320000C11429F3C5010E942B338C83811581F0F1
:103210008B819C8181304FEF940710F0982F882785
:1032200056E0D51649F0A7E0DA1649F00E945C276F
:103230000C5F1F4F5801CBCF0E941827F9CF0E9477
:103240003A27F6CFE4E0DE12C2CF5801F4E0AF0E29
:10325000B11CC80103960E942B33C11409F483C02A
:10326000811509F480C08150990B4FEF489F900160
:10327000499F300D11244C2D4150550B240F351F03
:103280002150310908F4A3CF8FE99FE00197F1F7AE
:1032900000C00000F5CFC4010E948310560197CFF3
:1032A0006801A7E5DA1AC114B1E0DB0658F56EE84B
:1032B00073E08C2D0E94CC17892B21F5C60134E0D8
:1032C000880F991F3A95E1F7FC01E755FC4F2281E1
:1032D000213099F520918E0330918F03232B91F0AB
:1032E0002091900330919103232B61F02091920360
:1032F000309193034091940350919503242B352BE7
:10330000232B19F1F7013580311409F441C00E3532
:10331000FCE71F0729F10F352CE7120741F00D35A7
:103320004CE71407A9F5809115018115C9F0109299
:10333000150180E00E94061616C0223019F7209170
:10334000920330919303232BE9F2FC01E255FC4FE9
:1033500020812E7F208387559C4F0E94DF15D2CF7E
:1033600081E08093150180913E048770811561F0A2
:10337000D70115968C91811539F08091170582FF40
:1033800003C082E00E948C042696E2E10C94DA32BB
:1033900080911501811155C0C80197558115914043
:1033A00008F4B0C180910D0580FF5BC20E949D09A9
:1033B0005C01F7018581811509F464C280911601D1
:1033C00082FF06C040E0B50180E090E00E94301529
:1033D0000431FCE71F0709F451C205312CE712073D
:1033E00009F4ECC103314CE7140709F42CC2C801FD
:1033F00090528115904308F0EBC110922C0410926A
:103400002B04D70115962C91211509F4BEC31092F7
:103410003604C8019057839708F0B7C384E090E062
:103420000E9433339093170580931605F801E150FD
:10343000F047E232F10508F0ECC2EC55FC4C0C947C
:10344000B132480180EE881A910850903C04809176
:103450003B04582A80913A04582A98E0891691042E
:1034600008F052C098012770332781E090E001C036
:10347000880F2A95EAF7311409F443C0582AD70176
:103480008D919C910E942D0421E030E0390102C011
:10349000660C771C8A95E2F7E0919B03F0919C0300
:1034A000FE83ED83212CE22DF0E0EE0FFF1FE252B0
:1034B000FE4FC080D180C114D10409F43EC0511028
:1034C00005C0D60112968C91811119C0F601838135
:1034D00090E086219721892B91F08085982F977015
:1034E000911101C087E0F8E08F16910408F051C0F7
:1034F000311409F44AC08695817081114FC023941C
:10350000D2CF80955822BBCF31102CC08091A3031D
:103510009091A4030817190781F41092A403109244
:10352000A30310929F031092A0031092A103109284
:10353000A20310929E0310929D0380919B03909191
:103540009C03009709F428CFA8E08A16910408F09C
:10355000C2C0652D0E941308811124CF81E00E9412
:10356000061620CF1093A4030093A3030E94420BDE
:1035700060939F037093A0038093A1039093A20391
:1035800010929E0310929D037ACF82FB882780F9C8
:10359000B4CF311409F4B3CF80FFB1CFD601AD90D1
:1035A000BC900A151B0519F4311409F4A8CFED815C
:1035B000FE81CE16DF0609F4A2CFD6011D96ED914D
:1035C000FC91309721F08081811509F498CF652D09
:1035D000C6010E941308811509F491CF412C0A15E8
:1035E0001B0509F4432CA114B10451F0411008C08B
:1035F0008091A3039091A403A816B90609F07FCF88
:1036000080E00E940616D0929C03C0929B0381E04A
:1036100080939A03F60185818093990341100CC031
:10362000AB2851F0808191819C0124503109213ACD
:103630003105A8F50E947009D6011696AD90BC9090
:10364000C5019A9581159F4110F4E0EEBE227724C2
:103650007394C50101978F339E4708F0712CD601F2
:103660001996ED91FC911A97309731F01B966D9158
:103670007C9181E009957822711471F0F6018681C0
:1036800097810E94810380939803C501F8E08F160B
:10369000910440F40E944E0B0E940F0F0AC00E943A
:1036A0001610CACF0497813A910548F48A2D0E94DA
:1036B0003C09411409F470CE0E940F0F54CE0E94B1
:1036C0000F0F8FE39CE90197F1F700C000008A2DEE
:1036D0000E94840FEECFFC01208131810217130775
:1036E00041F4311009C010929A0380E00E9406163E
:1036F00053CE311409F450CEDC0118968C9185FD1F
:103700004BCEF3CFF801FF2794E0EE0FFF1F9A9501
:10371000E1F7AF0147555C4F6A01D70115968C91CF
:10372000E255FC4F908180FB90F99083811549F11F
:103730000E949D099093A8038093A703F6018281BC
:103740008F5F828380913D0490913B04892B83831A
:1037500080913A0484834681578166857785C601C6
:103760000E94DE08D60115968C9181FD07C0902F2E
:10377000812F9093A5038093A60314CE90E080E060
:10378000F8CFFA014485558566857785C6010E9484
:10379000DE08D60115968C9181FF04CEC6010E94E9
:1037A000C2158091A5039091A6030817190709F087
:1037B000F9CD1092A6031092A503F4CD90911601B5
:1037C000892F8E7F90FF8160809316010E941115D2
:1037D0008091160180FF45C00832110508F068C0CD
:1037E0000E31110508F075C0C80104974A9780F59D
:1037F00080910D0584FD2CC0F7018581811509F4A8
:10380000D6C080913A0490913B04892B8D7F81151D
:1038100009F464C010922C0410922B0480910D05C1
:1038200081FD5CC060E0C8010E94B00760E0C80193
:103830000E94061080913A048D7F0E94340A82E033
:103840000E948C0490CD80911601816080931601B6
:10385000D70115968C91811521F010922C041092AD
:103860002B04F7018581F801E851FC47E730F105A9
:1038700008F0C7CDEA53FC4C0C94B132809116018C
:103880008E7FA2CF809116018F7E013E110531F00F
:10389000053E110531F4809116018F7D809316014C
:1038A00097CFC80190528115904308F091CFA9CDD0
:1038B0000933110558F40D32110518F40B321105B6
:1038C00039F680910D0582FDC3CF96CF04361105E0
:1038D000F7CF80910D0583FDBBCF8ECF89E0F70137
:1038E000ADE2B4E001900D928A95E1F710923004B8
:1038F00010922F0480912B0490912C040817190723
:10390000C9F520910D0525FF35C03091160131FF15
:1039100002C026FF2FC02091290430912A0465019E
:10392000C21AD30A0E94E117C816D90618F5809169
:103930003B0481FF08C080911601806180931601CD
:1039400082E00E94AE0480913B0485FF08C0809114
:10395000160180628093160180E20E94AE0460919D
:1039600016016695617080912B0490912C040E9441
:103970000610F9CC80913A04D0903B04D82AD1FAB1
:10398000DD24D0F88D7F0E94340A10932C0400931C
:103990002B04B0922A04A0922904DD0C6894D2F87A
:1039A00090911601997FD92AD092160148CF40E014
:1039B000B501C8010E943015D6CC06E221EE41EED9
:1039C0006AE17CE70E94FF17CECC07E225EE45EEC8
:1039D0006BE17CE7F7CF06E221EE40EE68E17CE7A1
:1039E000F1CF07E225EE44EE69E17CE7EBCF06E29A
:1039F00021EE42EE6CE17CE7E5CF07E225EE46EEF4
:103A00006DE17CE7DFCF08E221E045EE6EE17CE787
:103A1000D9CF8091160581608093160560911605B7
:103A20007091170584E090E00E9467330E94251191
:103A30009ACC80911705886080931705EFCF80910D
:103A400016058260E9CF809116058460E5CF8091EC
:103A500016058860E1CF809117058160EDCF8091D8
:103A600017058260E9CF809116058061D5CF8091DE
:103A700016058062D1CF809116058064CDCF0E945B
:103A80002511809116058068C7CF809116058C603E
:103A9000C3CF809117058360CFCF809116058E7FAD
:103AA000BBCF80911705877FC7CF809116058D7F8B
:103AB000B3CF809116058B7FAFCF80911605877F9E
:103AC000ABCF809117058E7FB7CF809117058D7F83
:103AD000B3CF809116058F7E9FCF809116058F7D85
:103AE0009BCF809116058F7B97CF0E9425118091E7
:103AF00016058F7791CF80911605837F8DCF8091AA
:103B000017058C7F99CF8091160582FB992790F934
:103B100021E0922790FB82F990FB83F97DCF809181
:103B20001705982F909590FB80F990FB81F984CF31
:103B300090911605892F8F7B96FF80646DCF0E9430
:103B4000251190911605892F97FB87F9805864CF2E
:103B500061E08EE090E00E94493360CF60E0F9CFF1
:103B600090911605892F8F7E94FF806155CF90919B
:103B70001605892F8E7F90FF81604ECF909117059B
:103B8000892F877F93FF886057CF0631BCE71B07DB
:103B9000C1F580913B0430910C0530FF04C0982F93
:103BA0009474911122C0982F9A7A31FF04C0482F43
:103BB0004171411190E032FF04C0482F4878411113
:103BC00090E033FF03C08272811190E0211579F0FB
:103BD00081E0911101C080E08093370485E3911169
:103BE00001C089E20E943C0967CD90E0DECF809160
:103BF0003704811521F085E30E9470095DCD89E2CB
:103C0000FBCF0737ECE71E0709F460C00837FCE775
:103C10001F0709F466C02115B1F00A352CE7120719
:103C200009F48CC008F062C001305CE7150709F4A4
:103C300083C003308CE7180709F478C001159CE7AE
:103C4000190709F466C0F70187819085009709F488
:103C500079C00E94B405182FD92EF701C580B6800F
:103C6000B2948FE0B82280913E048770811501F1F3
:103C7000AC2CC114F1F0892F807F803461F080E298
:103C8000810F8830A8F0892F807E803221F4123095
:103C900078F0B11469F08091170582FF09C082E0C5
:103CA0000E948C0480913E048770AA24A394811101
:103CB000A12C8D2D82958F70882E912C8C3008F040
:103CC000B2C0F401E353FC4C0C94B13281E02115F5
:103CD00051F00E94DA0343E062E081E00E94610457
:103CE00042CB82E0F4CF0E94E603F5CF0B35ACE780
:103CF0001A0731F10C35BCE71B0709F0A4CF8091FE
:103D0000170582FB882780F991E089270E94850D9D
:103D10009ACF0E942511EFEFF4E32CE0E150F04040
:103D20002040E1F700C000000E94AB0B6FEF7FEF77
:103D300080E090E00E9467330E94561181E0E6CF58
:103D400080E0E4CF8581C080D180811569F0C60113
:103D50000E947E0E182F682FC6010E94F603B6013E
:103D6000812F0E94610E75CFC6010E942D04182F6D
:103D7000F6CF0D2D0F70F0E1DF1610F00295007FE9
:103D8000C114A9F0011559F080E2810F883010F0BC
:103D9000111107C0802F0E94A8040E940F0F812FCD
:103DA00040C080913D04802B80933D04F6CF812F4D
:103DB0000E9416100115B9F180E2810F883010F0D1
:103DC000111104C0802F0E94AE0406C0009580919E
:103DD0003D04802380933D040E940F0F24C00D2DCD
:103DE0000F708D2D807F803211F00295007F1115AC
:103DF00051F0113009F4A3C0C11409F4AFC0B114DB
:103E000009F44AC0CCCF8091170582FD41C0C1148E
:103E1000C9F1011529F0802F0E94A8040E940F0FFC
:103E200080E00E94840F88E0881A910894E0891647
:103E3000910410F40E94E308812F9D2D0E94B50388
:103E40008111D2C11092190510921805A114A9F080
:103E500080913E0480FD11C0F701158286958695FC
:103E600086950E94DA03C7010E94601880913E0483
:103E70008695869586950E94E60360E0C7010E94BC
:103E8000EA0E82CA80E00E941610011561F29ACFF4
:103E9000C11491F1B11004C0802F0E94610FC3CFF3
:103EA00021E0B21211C070903A04802F87210817C8
:103EB00009F4B9CF0E949D09909339048093380486
:103EC000702A70923A04AFCF80910E05823008F4C8
:103ED000AACFB812A8CF802F0E94610F802F0E9416
:103EE0001E0A80913C04902F9823091709F49BCF58
:103EF000802B80933C0497CFB11012C0802F0E947A
:103F0000720F802F0E941E0A80913C04902F9823EC
:103F1000911509F488CF0095082300933C0483CFC2
:103F200080910E05823008F47ECF41E0B4127BCF41
:103F300080913B048023811509F475CFDFCF8091F8
:103F40001405C11421F08B1508F46DCFA5CFB81658
:103F500008F069CF802F0E94720F65CFB114D1F3A2
:103F60008091120590911305193321F0809110056D
:103F7000909111050E94110D812F0E94161053CFB0
:103F80008D2D869586958370811569F0813009F0B5
:103F90004ACF812F9D2D9370C11002C080E090E028
:103FA0000E94160940CF812F9D2D9370C11002C031
:103FB00080E090E00E94F00836CF6C2D812F0E94A7
:103FC000700A31CF8D2D8370811133C0C1102BCF7A
:103FD000412F429546954770440F440F812F8F70B3
:103FE000042E01C0880F0A94EAF7212F20712115B1
:103FF00039F02FE030E001C0220F4A95EAF7209512
:104000003D2D369536953370323071F0333051F0A6
:104010004091F004313029F0822B84230E94D40394
:1040200002CF842B822BFACF822B9091F004892728
:10403000F5CFC11459F1D0FEF6CE412F42954695E9
:104040004770440F440F812F8F70042E01C0880FDA
:104050000A94EAF7212F2071211539F02FE030E082
:1040600001C0220F4A95EAF720953D2D36953695E9
:104070003370323091F0333071F04091F1043130CF
:1040800049F0822B84230E94D703CDCE823008F4DE
:10409000CACED3CF842B822BF6CF822B9091F10402
:1040A0008927F1CF0D2D0F70C11429F0802F0E94A8
:1040B000DA03812FF2CE812F0E94720F802F0E948F
:1040C000E603B1CE123F71F160F4103FB9F0113F39
:1040D00081F0C11409F483C0B11061CE8D2D8F71B0
:1040E00025C0133F31F1143FA1F78091170582FDE0
:1040F0002CC08D2D8F71C11411F318C0809114053F
:10410000C11461F0B81608F08ECE2D2D2F7181E00C
:1041100090E001C0880F2A95EAF7C0CF8B1508F40C
:1041200082CEF3CF8D2D8F71C110C9CF0E94DA03DB
:104130007ACE80E0C11409F4A6CF81E09D2D9F7155
:1041400001C0880F9A95EAF79ECF80910E058230C4
:1041500078F1C114E9F090913E049770943061F4C5
:1041600010923E041092400410923F048D2D8F71E6
:104170000E94E603A12C57CEB816E0F70D2D0F7163
:10418000802F0E94DA0363E0802F0E94060AF2CF9C
:10419000B81650F010923E041092400410923F0462
:1041A00064E08D2D8F71F1CF81E00E948C04E2CF0D
:1041B000C11451F00D2D0F71802F0E94DA0363E0BE
:1041C000802F0E94060A2FCE81E00E948C0452E0CC
:1041D000B51608F428CE82E00E948C0424CEB110DB
:1041E000BFCE8D2D8F716BCFC11419F0B1102ACEB7
:1041F0002DCEB11027CE40E0D70115966C911597C2
:104200008D919C910E94CC0E80910F0583FF1ACE58
:104210008091180590911905029709F013CE812F0E
:104220000E945F100FCEA0E0B0E0E9E1F1E20C9453
:10423000C93280917303803108F049C080917203C4
:10424000811509F444C0C091240389E0D82E8091DF
:1042500023038C17E1F1EC2EF12CDC9EE0011124FC
:10426000FE01EB5DFC4F84818115B1F1918180915C
:104270006E03981331C0908180916D0398132CC008
:104280008581811129C00281138180916F039091F2
:104290007003081B190B60E08DE693E00E94EA0EA4
:1042A0000E94E11708171907B8F4809173038F7003
:1042B000806180937303C55DDC4F88818F7080615E
:1042C00088838DE693E00E9460180E948204CDB737
:1042D000DEB7E7E00C94E532E7012196C770B7CF6F
:1042E000AFE0B0E0E6E7F1E20C94C1328C0186E089
:1042F000F801DE011A9601900D928A95E1F7D80136
:10430000CC9011967C90119715966C9015971296FB
:10431000ED90FC90139714965C908DE6A82E83E0A8
:10432000B82E80917103811118C0511499F0611455
:1043300009F4BFC1C8010E94B80E811509F4B9C1C2
:1043400089E0F801ADE6B3E001900D928A95E1F7BE
:104350000E941321FF24F3944BC060E08DE693E0AC
:104360000E94EA0ED090720380916F0390917003C7
:10437000D11409F449C14701881A990A60E08DE611
:1043800093E00E94EA0E0E94E1178816990608F051
:10439000F6C05114F9F280916E03F8019181B0904A
:1043A0007303F0E1BF1608F0A1C0F62C981325C0E6
:1043B00090916D03D8018C9198131FC020917403C4
:1043C0003091750317968D919C9128173907A9F4A0
:1043D000611077C08B2D8F708061809373038DE6A1
:1043E00093E00E94601880917303F8018683F12C9A
:1043F0008F2D2F96EFE00C94DD32611062C0E091BA
:10440000240380912303AE2F99E0A81302C099E002
:104410002AC02A2F30E09A9FD0011124AB5DBC4FF7
:1044200011964C911197741207C04C91C41204C09C
:1044300015964C91411147C1D9011196A770E5CF4E
:104440002E2F30E09E9FF0011124EB5DFC4F418147
:10445000741206C04081C41203C045814111C7CF08
:10446000F9013196E7708E13EBCF8A859B850E9408
:10447000A90E292F22952F70903448F02A5F2F70B3
:104480002230C8F0C8010E946018FD2CB1CF9F7087
:10449000223038F0911551F0F8019681903130F4C6
:1044A000A7CF911519F0811509F4A2CF805E88304D
:1044B00008F49ECFE7CF803F08F49ACF815F833026
:1044C000F7CF8091730381608093730380910F0510
:1044D00081FD8DCF8DE693E00E94601889E0EDE6C6
:1044E000F3E0DF011D928A95E9F781CF981321C08F
:1044F00090916D03D8018C9198131BC02091740387
:104500003091750317968D919C911897281739074C
:1045100081F461100EC01696BC92C8010E9460180A
:1045200089E0F801ADE6B3E001900D928A95E1F7DC
:1045300011CFC8010E94B80E811509F4BAC06114E8
:1045400009F4B7C080917303803208F4F9CE8091EA
:104550006D0390916E039A838983FC82EB82809134
:1045600071038D831E82BF828091740390917503C5
:1045700099878887CE0101960E946018E1CED0907D
:104580007303B0E1DB1608F4A5CF511409F4E2CEB1
:1045900090916E03F801818198131AC090916D0378
:1045A0008081981315C02091740330917503878121
:1045B00090852817390761F461100AC0D682C801B6
:1045C0000E94601889E0D5011D928A95E9F7C2CE54
:1045D000C8010E94B80E811509F46BC0611409F47A
:1045E00068C080917303803208F4AACE80916D0375
:1045F00090916E039A838983FC82EB828091710390
:104600008D831E82DF82B0CF6701C81AD90A60E0AD
:104610008DE693E00E94EA0E0E94E117C816D906C3
:1046200008F04BC0511409F495CE611409F441C04F
:1046300090916E03F8018181981331C090916D03C0
:10464000808198132CC02091740330917503878169
:1046500090852817390719F580916F0390917003A1
:10466000E81AF90AF7E8EF16F10408F059CF80913B
:10467000730380FD55CF803108F452CFD8011696D0
:104680008C931697982F907F903F09F446CF982FE0
:10469000907F905F8F70892B16968C933ECFC801C8
:1046A0000E94B80E81114CCE80917303816080937B
:1046B0007303C8010E9460184DCE89E0F501119284
:1046C0008A95E9F794CE90910F0590FFA0CE02CF86
:1046D000A2E1B0E0EEE6F3E20C94CC320A871B874D
:1046E0002C873D874E875F87688B798B8A8BCE01BD
:1046F0000A960E94702181112AC089E0FE013A9633
:10470000DE01119601900D928A95E1F72091230325
:10471000409124038E858115D1F030E0C9010196C6
:104720008770992748171906E9F099E0929FD00100
:10473000939FB00D1124AB5DBC4FFE0131960190EB
:104740000D929A95E1F7809323030E94820419E069
:104750008091240390912303891312C06296E4E0B0
:104760000C94E8320E942511109223031092240326
:1047700089E0EDE6F3E0DF011D928A95E9F7E7CFE6
:10478000189FC00111248B5D9C4F0E9470218115E0
:1047900029F38091240390E00196877099278093F4
:1047A0002403D6CFEF92FF920F931F93CF93DF9303
:1047B0008091ED04E091BC01CDE0811131C0CDB715
:1047C000DEB7E6E00C94E632D1E0DE0FD093BC0118
:1047D000EE2EF12CCE9FF0011124EB57FB4F84817C
:1047E0008115E9F087819085892B21F48185928557
:1047F000019659F4008111812281338144815581D0
:104800006681778180850E946823CE9DF001CF9DCF
:10481000F00D1124EB57FB4F148210923D04ED2F45
:104820008091ED04E81780F21092ED041092BC0123
:10483000C6CFA4E0B0E0EFE1F4E20C94BF322091E7
:104840008404298317E0912E01E010E08DE0382EDA
:1048500094E0492E552453948091830499818913BF
:1048600008C00E94D2230E94D6072496E1E10C944E
:10487000DB325981452F50E05C834B83FA01EE0F08
:10488000FF1FE758FB4F80819181989ED001999E30
:10489000B00D1124FD01EF5BFB4FFA83E983248106
:1048A00021115BC06090ED04E5E8F4E060E070E0A9
:1048B000812C661508F04FC0A384B484A981BA8105
:1048C000CD90DC904FEF5FEF712C272D30E0790118
:1048D000EE0CFF1CEC0CFD1CD701ED90FC90E114DC
:1048E000F10439F0AE14BF0409F09A017394A901E0
:1048F000ECCF4F3F5407D1F1D80102C0AA0FBB1F24
:104900004A95E2F78A2AA801072C02C0440F551FD6
:104910000A94E2F79A01215031098216130629F50B
:10492000369EF001379EF00D1124EB57FB4F989EF9
:10493000D001999EB00D1124AF5BBB4F12962D9103
:104940003C9113973087278344821082118292878B
:10495000818715965C920E94E7078B819C81019666
:104960009A8389838370898377CF14826F5F7F4FA7
:104970003D969FCF1092EF041092EE041092170113
:1049800080918304809384040E94D6070E94D223DE
:104990000895ACE1B0E0EFECF4E20C94BE324B8B46
:1049A0005C8B6D8B7E8B8F8B988F811549F08091FE
:1049B0001805909119050196909319058093180593
:1049C000988C911010923D04188A198A1A8A86E0F0
:1049D000FE017396DE011A9601900D928A95E1F719
:1049E0008091170582FF21C08091F4049091F50415
:1049F000892BD9F00E949D0920913F0430914004F9
:104A0000821B930B2091F4043091F50482179307D5
:104A100038F080913E0482FD03C082E00E948C0445
:104A20000E94A90981110E94B6048E85811579F032
:104A300061E0CE010A960E94EA0E5C0180352CE707
:104A4000920789F4911411F181E0809317010A858E
:104A50001B852C853D854E855F85688979898A8986
:104A60000E946823CCC081353CE7930729F4911458
:104A700069F00E94BA24EBCF82359C4739F4911437
:104A800029F0809117018111F4CFDECF11E4E12EDE
:104A900014E0F12E812C412C512CD7014D915C91C9
:104AA000CC24CA94DD24DA9420E0822F90E0FC012B
:104AB000EE0FFF1FE40FF51F608171816115710515
:104AC00039F0A616B70609F0C6012F5F6C01EDCFCD
:104AD00010E0BFEFCB16DB0609F44FC0F7014481AD
:104AE00010911701812F411180E0182F1170D7010B
:104AF00015963C90159716968C911697911409F47B
:104B0000FDC0111509F4FAC0609008057090090500
:104B1000311015C041E050E00C2C01C0440F0A9444
:104B2000EAF7842B16968C938091810490918204ED
:104B30008615970520F4709282046092810481E0CA
:104B400090E002C0880F991F2A95E2F70197F701BC
:104B500026812817190689F48091EE049091EF04BC
:104B6000009709F450C00E949C0B6816790608F063
:104B70004AC081E0D70114968C93812ABFEF4B1A6B
:104B80005B0AE7E0EE0EF11CF8E04F16510409F065
:104B900084CF911409F415C1811409F412C10E9443
:104BA0009D099093EF048093EE048091ED0488308A
:104BB00030F591E0980F9093ED0499E0FE013A965C
:104BC000DE01119601900D929A95E1F72DE0829FFA
:104BD000C00111248B579B4F29E0FE013196DC0167
:104BE00001900D922A95E1F72FEF3FEFDC011A9625
:104BF0003C932E9319971C96BC92AE921B976C9681
:104C0000E2E10C94DA322091840480918304922FA3
:104C1000E0E0F0E001E06701281314C09093840401
:104C2000EE15FF0509F4A9CF90E0FC01EE0FFF1F80
:104C3000E758FB4F518240820196837099278093F9
:104C400083049BCF622E712CF301EE0FFF1FE758F8
:104C5000FB4F60817181E7E0E69FD001E79FB00DD7
:104C60001124AF5BBB4F4D915C9111975C8F4B8FC3
:104C700050E030E040E0E42FF0E0EE0FFF1F6B8DDE
:104C80007C8DE60FF71F2080318021143104E1F084
:104C9000F7010190F081E02DFA8FE98F30E005C037
:104CA0002616370609F4512F3F5FE32FF0E0EE0F91
:104CB000FF1F698D7A8DE60FF71F60817181611585
:104CC000710571F74F5FD7CF5115A9F0F601341771
:104CD00008F0FD010483EE15FF0509F49FCF2913A9
:104CE00005C0EA17FB0711F49F5F937093012F5FD4
:104CF0003F4F237091CFE0E0F0E0F8CF90E031102B
:104D000025C061E070E002C0660F771F2A95E2F7C8
:104D10009B01215031098217930731F4411509F4A1
:104D20004EC0C2010E94E707E1E0F0E002C0EE0FD2
:104D3000FF1FCA94E2F76F01C094D70116968C91B9
:104D400016978C2116968C93132D17CFAC010C2C33
:104D500002C0559547950A94E2F79C01215031090C
:104D600082239323892B39F540FF25C0D701129662
:104D70008D919C91892BD9F087E0FE013196DF015E
:104D80001D928A95E9F70E949D099C018B839C8363
:104D900084E08D83F70192818381792F98878987B9
:104DA00009811A8144E05E816F810E946823D701E6
:104DB00015961C92B9CFB42FB1703B2EB5CF312EC2
:104DC000B3CF9091840480918304981729F00E94B6
:104DD0001924811014CF3BCE0E94D2231092EF04ED
:104DE0001092EE040E94D607F4CFA6E0B0E0EBEFFD
:104DF000F6E20C94CC320E949D098C018091F7025E
:104E00009091F8028017910779F019821A820E9416
:104E10009D09BC0149815A8180E090E00E94C9242B
:104E20001093F8020093F7022696E4E00C94E8321F
:104E3000A6E0B0E0EEE1F7E20C94CE329093F402FB
:104E40008093F302811520E2920730F40E94F00F64
:104E50002696E2E00C94EA3280EF89838A830E94EE
:104E60009D098160BC0149815A8181E091E00E94E5
:104E7000C924EECFA6E0B0E0E0E4F7E20C94CE3235
:104E80009093F4028093F302811520E2920730F4AC
:104E90000E9449102696E2E00C94EA3280EF898362
:104EA0008A830E949D098160BC0149815A8181E009
:104EB00090E00E94C924EECFCF93DF93D82FC92F63
:104EC0000E94182780911005909111050E94110DE4
:104ED0008D2F9C2F0E943A27DF91CF9108950F9339
:104EE0001F93CF93DF938C01862F6EE873E00E94AF
:104EF000CC17892BA9F4C0918E03D0918F032097F2
:104F000079F0F8018281833051F4CE010E945C2750
:104F1000CE010E945C27CE010E945C2701C0D8F719
:104F2000DF91CF911F910F9108950F931F93CF930E
:104F3000DF938C01EB016EE873E08C2F0E94CC179D
:104F4000892B09F05AC0FE01FF27D80112968C91D7
:104F50001297E854FD4F8130A9F415968C9182FD8B
:104F600051C080FF4FC082E0808380919003909178
:104F700091030097B9F480918E0390918F0300976D
:104F8000E1F110C08230B9F515968C9182FD28C0F0
:104F900080FD0BC083E08083809192039091930306
:104FA000009701F10E94182728C084E08083809137
:104FB0009403909195030097A9F780918E039091A7
:104FC0008F03009711F10E945C27809190039091CC
:104FD0009103009739F780918E0390918F03E2CF70
:104FE00085E0808380918E0390918F03009729F054
:104FF0000E945C27F0CF86E08083DF91CF911F91E4
:105000000F91089581E08083B6CF809190039091B5
:105010009103B5CF0F931F93CF93DF938C01EB01D7
:105020006EE873E08C2F0E94CC17892BA1F480913D
:105030001005909111050E94110DDD27C854DD4F18
:105040008881F801128218828330F1F048F48130AF
:1050500059F0823081F0DF91CF911F910F91089527
:105060008430B9F08530B9F780918E0390918F0329
:10507000009789F306C08091900390919103009767
:1050800099F30E943A27E7CF80919203909193037E
:10509000F6CF8091940390919503009791F720911A
:1050A0008E0330918F03809190039091910321158D
:1050B0003105F1F2009729F7C901E3CF9C01CB013B
:1050C000BA01F9013296459154916417750748F079
:1050D000F9013496659174910E940B3380E090E061
:1050E00008958FEF9FEF08959C01DA010296FC016D
:1050F00045915491FC0185919491A817B90758F0F6
:10510000F9013496859194910E940B330E94EF0D22
:1051100080E090E008958FEF9FEF0895A8E0B0E061
:10512000E4E9F8E20C94C232FE01319688E0DF0136
:105130001D928A95E9F790E3A92E91E0B92E8F018F
:1051400024E3E22E21E0F22E3F01CC24C394D12CA3
:10515000F50181915F018F3F09F447C0F894E82F72
:10516000E295EF70F0E021A18F70A60102C0440F1C
:10517000551F8A95E2F7CA01922F982B91A392A10D
:105180008095892382A3789400C0E4E3F1E021E0D4
:1051900030E0812C912C41914F3F81F0A42FA295BA
:1051A000AF70A05EB0E08C9190E04F7002C095951A
:1051B00087954A95E2F781708115D9F180E090E0FA
:1051C000882A992A220F331F51E0EE33F50719F789
:1051D000F501319780818F3F11F00E94CD0680EA62
:1051E0008A95F1F7D8018D929C920E5F1F4FEA14B9
:1051F000FB0409F0ADCF48E050E0B30180EC92E051
:105200000E94FE32892BB9F088E0F301A0ECB2E0F5
:1052100001900D928A95E1F781E08093A0010E94B0
:105220009D0990939F0180939E012896EEE00C9437
:10523000DE32C901C5CF8091A0018115B1F3809103
:105240009E0190919F010E949C0B059770F348E08E
:1052500050E060EC72E088EE92E00E94FE32892B12
:1052600049F088E0E0ECF2E0A8EEB2E001900D92A7
:105270008A95E1F71092A001D8CFCDB7DEB7AA97F3
:105280000FB6F894DEBF0FBECDBF85B7806885BF6F
:1052900085B7806885BF84B7877F84BF0FB6F894D1
:1052A000A8958091600088618093600010926000F2
:1052B0000FBE80E890E00FB6F89480936100909361
:1052C00061000FBE8BEC96E09093750180937401A2
:1052D0000E94F3060E9401170E9445170E940C0EBF
:1052E0000E94670C0E94B60C8091E200846080935B
:1052F000E20078948091F202811599F08091E900A2
:105300001091EC001795112717958F70182B10929C
:10531000E9008091E80083FD0E944C121F701093F9
:10532000E90082E084BD93E095BD9AEF97BD80933C
:105330006E000E94F60E811102C00E94F11681E3F8
:105340000E94CD0683E30E94CD0682E30E94CD0633
:1053500086E60E94CD0604E311E08EE3E82E81E0AC
:10536000F82ED8018D918D018F3F11F00E94CD064E
:10537000E016F106B1F788E0E8EEF2E0DF01282F51
:105380001D922A95E9F7E0ECF2E0DF011D928A9583
:10539000E9F780E090E00E943333863E9E4F21F48F
:1053A0000E94F60E811168C066EE7EEF80E090E00C
:1053B0000E94673360E082E090E00E94493381E020
:1053C0008093F00461E083E090E00E94493360E064
:1053D00074E184E090E00E94673360E086E090E052
:1053E0000E9449336FEF87E090E00E94493340E02C
:1053F00050E0BA0188E090E00E945B3360E084E214
:1054000090E00E94493360E087E190E00E944933D8
:1054100060E08CE090E00E94493360E08DE090E035
:105420000E94493319821A821B821C821D821E82AD
:105430001F82188648E050E068E170E0CE010196D6
:105440000E94393340E050E0BA0180E290E00E94CF
:105450005B3380E00E94D30D0E94F11640E050E0E3
:10546000BA018FE090E00E945B3340E050E0BA0167
:1054700083E190E00E945B3382E090E00E942B3356
:105480008093CA0284E090E00E9433339093170522
:10549000809316050E948E28EFEFF6E721E0E15099
:1054A000F0402040E1F700C000000E948E2880916B
:1054B000E80280FF08C06FEF7FEF80E090E00E947D
:1054C00067330E94AB0B83E090E00E942B330E9475
:1054D000D40384E091E090931A038093190303EDC1
:1054E000402E02E0502E8091F202853049F48091E6
:1054F000F202853009F45CC00E9425110E94E30885
:105500000E948E281BECA12E12E0B12E08EE12E0B4
:10551000D801F501219131918D919D914E165F0633
:1055200009F498C028173907A9F3B8EE8B2EB2E01A
:105530009B2E312CF401E190F1904F01D5016D903B
:105540007D905D016E147F0461F16E247F24212C17
:10555000CC24C394D12CC3018C219D21892BB9F07B
:1055600029823A820E949D099C838B83B1E0BD838E
:1055700091E097012C213D21232B09F490E09E839B
:1055800049815A816B817C818D810E94C924239439
:10559000CC0CDD1CEAE02E12DECFF5013297F18251
:1055A000E0823394F4E03F12C5CF0E94420B58C012
:1055B0008091F202843021F11092C80288E190E0DB
:1055C000A0E40FB6F894A895809360000FBEA09356
:1055D000600083B7817F846083BF83B7816083BFAE
:1055E0007894889583B78E7F83BF0FB6F894A8957B
:1055F00080916000886180936000109260000FBE0F
:105600008091C902811509F472CF0E948E28E8EEBC
:10561000F2E081919191892B29F4B2E0E03FFB0700
:10562000C1F765CF80E189BD82E189BD09B400FE83
:10563000FDCF8091D8008F7D8093D8008091E000CD
:1056400082608093E0008091E00081FDFCCF0E94A9
:1056500025114DCF2817390709F067CF0E94F5268D
:1056600080919D0390919E03892B09F43EC0409147
:10567000DB025091DC026091DD027091DE022FB7F7
:10568000F8948091D3029091D402A091D502B09168
:10569000D6022FBF841B950BA60BB70B4091D702E8
:1056A0005091D8026091D9027091DA02841795075F
:1056B000A607B707D0F080919D0390919E030E94AA
:1056C000F00F10929E0310929D031092DB02109235
:1056D000DC021092DD021092DE021092D7021092CC
:1056E000D8021092D9021092DA02C090A503D0908D
:1056F000A603C114D10409F18091A7039091A803D6
:105700000E949C0B7C01C6010E94E1178E159F052B
:10571000A0F48091A5039091A6039927E4E0880F57
:10572000991FEA95E1F7FC01E255FC4F208122FD2B
:1057300004C087559C4F0E94DF1580911701811589
:1057400001F18091EE049091EF040097D1F00E9456
:105750009C0B20918104309182042817390788F42A
:105760009091840480918304981709F493C00E9457
:10577000192410928204109281041092EF04109266
:10578000EE0480910D0580FF1CC08091160182FF00
:1057900018C00E949D09BC018091290490912A049F
:1057A0009B01281B390B80910E0190910F01281746
:1057B000390738F041E080912B0490912C040E942D
:1057C000301586E0E8E8F3E0DE01119601900D92D5
:1057D0008A95E1F7C0908903D0908A03E0908B030B
:1057E000B0908C03F0908D0310928A0310928B037B
:1057F00010928C0310928D038E2D8D29811509F442
:105800005CC08091E1029091E2020E949C0B9C019D
:1058100080918603811509F446C090911301921777
:10582000130608F04AC08F3F19F08F5F80938603FC
:10583000D11459F00E94420891E01D140CF09FEF22
:10584000899F802D112480938A03E11459F00E94CE
:10585000420891E01E140CF09FEF899F802D1124C7
:1058600080938B0380918A03811539F1A0908B037B
:10587000A11419F10E943408811101C081E08093C4
:105880008A038A2D0E943408811509F464C080932C
:105890008B0313C00E94D2231092EF041092EE04E7
:1058A0000E94D6076ECF409112019AE0499FA00155
:1058B00011244217530708F4B8CF8F2D8B29811577
:1058C00009F457C08091DF029091E0020E949C0B86
:1058D0009C0180918503811509F441C090911101CB
:1058E0009217130608F045C08F3F19F08F5F809321
:1058F0008503B11459F00E94A20891E01B140CF02A
:105900009FEF899F802D112480938C03F11459F00F
:105910000E94A20891E01F140CF09FEF899F802D38
:10592000112480938D0380918C03811511F1B09027
:105930008D03B114F1F00E943408811101C081E09F
:1059400080938C038B2D0E943408811509F47CC050
:1059500080938D030EC0A1E0A0938B03AECF409146
:105960001001BAE04B9FA00111244217530708F41D
:10597000BDCF80918903C81219C080918A03811517
:1059800011F08D1113C020918B03211511F02E11F0
:105990000DC090918D03911511F09F1107C03091AA
:1059A0008C03311103C0822B892B81110E94480A7C
:1059B00086E0FE013196A8E8B3E001900D928A9549
:1059C000E1F70E94E3089091E302891721F08093A8
:1059D000E3020E94420B8091F202843009F083CDF1
:1059E00083E08093E9008091E80082FF7CCD809184
:1059F000E80090E085FF05C00E94370C811541F159
:105A000091E08091E8008B778093E800911509F48C
:105A10006ACDE090F502F090F602E981E114F1041C
:105A2000B1F1EE3F09F056C08A81833020F08550F5
:105A3000833008F04FC0EA81EE3008F04BC0F0E050
:105A4000E752FC4C0C94B132E1E0E0938D0391CF2E
:105A500070E2C72ED12C9E012F5F3F4F79018091BC
:105A6000E80085FD0AC08091E8008B778093E8000C
:105A70000E94370C811599F3C3CF8091F100D701B3
:105A80008D937D01B1E0CB1AD10849F7B9CFE4314C
:105A900050F4E11551F0E150E33138F4F0E0E95110
:105AA000FC4C0C94B132EE3F31F28FEFADC21A8252
:105AB00089E08B830FC08A818230A9F08330E1F0C6
:105AC000813099F70E94420B0E94B7326B837C832E
:105AD0008D839E8340E250E0BE016F5F7F4F82E086
